:020000020000FC
:040000003240006F1B
:0400010000000000FB
:0400020000000000FA
:0400030000000000F9
:0400040000000000F8
:0400050000000000F7
:0400060000000000F6
:0400070000000000F5
:04000800FC010113E3
:04000900001120239F
:04000A00005122235C
:04000B000061242349
:04000C000071262336
:04000D0000A1282303
:04000E0000B12A23F0
:04000F0000C12C23DD
:0400100000D12E23CA
:0400110002E12023C5
:0400120002F12223B2
:04001300030124239E
:04001400031126238B
:0400150003C12823D8
:0400160003D12A23C5
:0400170003E12C23B2
:0400180003F12E239F
:0400190034202573F7
:04001A00341025F386
:04001B0034302673E4
:04001C00144000EF9D
:04001D003415107313
:04001E00000120833A
:04001F0000412283F7
:040020000081230335
:0400210000C1238374
:0400220001012503B0
:0400230001412583EF
:04002400018126032D
:0400250001C126836C
:0400260002012703A9
:0400270002412783E8
:040028000281280326
:0400290002C1288365
:04002A0003012E039D
:04002B0003412E83DC
:04002C0003812F031A
:04002D0003C12F8359
:04002E0004010113B5
:04002F00302000730A
:04003000FD010113BA
:04003100021126236F
:040032000281242300
:0400330003010413AE
:0400340000000013B5
:04003500344027F339
:04003600FEF4202391
:04003700304027F33B
:04003800FEF422238D
:04003900FE04270397
:04003A00FE442783D6
:04003B0000F777B3A0
:04003C000107D7934E
:04003D00FCF42A2382
:04003E00FC042E236D
:04003F000010079313
:04004000FCF42C237D
:04004100FD44270350
:04004200FD8427838F
:0400430000F777B398
:0400440006078263C6
:04004500000827B7D1
:04004600B507871360
:04004700FDC427834A
:040048000037979353
:0400490000F707B302
:04004A000007A70301
:04004B00000827B7CB
:04004C00B5078693DB
:04004D00FDC4278344
:04004E00003797934D
:04004F0000F687B37D
:040050000047A7833B
:04005100000785130C
:04005200000700E7BC
:040053000000001396
:04005400344027F31A
:04005500FEF424236E
:04005600304027F31C
:04005700FEF426236A
:04005800FE842703F8
:04005900FEC4278337
:04005A0000F777B381
:04005B000107D7932F
:04005C000200006F2F
:04005D00FD84278374
:04005E00001797935D
:04005F00FCF42C235E
:04006000FDC4278331
:04006100001787936A
:04006200FCF42E2359
:04006300F79FF06FA4
:04006400FCF42A235B
:04006500FD442783AC
:04006600F60790E326
:040067000000001382
:040068000000001381
:0400690002C120832D
:04006A0002812403E8
:04006B000301011379
:04006C0000008067A9
:04006D00FD0101137D
:04006E000211262332
:04006F0002812423C3
:040070000301041371
:04007100FCA42E239A
:04007200FCB42C238B
:04007300FCC42A237C
:04007400FDC427039D
:04007500800007B749
:0400760000F777B365
:04007700FEF422234E
:04007800FDC4270399
:04007900800007B745
:04007A00FFF7C79332
:04007B0000F777B360
:04007C00FEF4242347
:04007D00FE44278393
:04007E00080780638C
:04007F00FE842703D1
:0400800000300793B2
:0400810002F70C6313
:04008200FE842703CE
:04008300007007936F
:0400840004F71A6300
:0400850083C1A78309
:040086000A0786637C
:040087000000001362
:0400880083C1A78306
:04008900FD44260309
:04008A00FD84258349
:04008B00FDC4250388
:04008C00000780E702
:04008D00000000135C
:04008E0008C0006F37
:04008F008381A7833F
:040090000807866374
:040091000000001358
:040092008381A7833C
:04009300FD442603FF
:04009400FD8425833F
:04009500FDC425037E
:04009600000780E7F8
:040097000000001352
:0400980006C0006F2F
:04009900FE842703B7
:04009A0000F00793D8
:04009B0006E7F4631D
:04009C00E51FF0EF7D
:04009D000600006FEA
:04009E008401A783AF
:04009F00040780636F
:0400A0008401A783AD
:0400A100FE842703AF
:0400A200FD442603F0
:0400A300FD84258330
:0400A4000007051339
:0400A500000780E7E9
:0400A600FEA426236B
:0400A700FEC42783E9
:0400A8000007886362
:0400A900FD84278328
:0400AA0000478793F1
:0400AB000080006F62
:0400AC00FD84278325
:0400AD00FCF42C2310
:0400AE000200006FDD
:0400AF0000100073CA
:0400B0000180006F5C
:0400B1000000001338
:0400B2000100006FDA
:0400B3000000001336
:0400B4000080006F59
:0400B5000000001334
:0400B600FD8427831B
:0400B70000078513A6
:0400B80002C12083DE
:0400B9000281240399
:0400BA00030101132A
:0400BB00000080675A
:0400BC00FF0101132C
:0400BD0000112623E5
:0400BE000081242376
:0400BF000101041324
:0400C000000807B776
:0400C100000785139C
:0400C20015D010EF56
:0400C300000007939F
:0400C4000007851399
:0400C50000C12083D3
:0400C600008124038E
:0400C700010101131F
:0400C800000080674D
:0400C900000002979A
:0400CA00CFC282938C
:0400CB0030529073AC
:0400CC00008002931B
:0400CD003002B073DA
:0400CE00304010733B
:0400CF003440107336
:0400D000000012B763
:0400D1000802A00F72
:0400D200FE02829315
:0400D300FE029CE3AA
:0400D400000421976C
:0400D500F68181939C
:0400D6000008011706
:0400D700CA810113C6
:0400D800838183138A
:0400D9009401839378
:0400DA0000032023DC
:0400DB0000430313C8
:0400DC00FE736CE360
:0400DD000C8000EFA4
:0400DE000004031700
:0400DF00D0830313B4
:0400E000000403977E
:0400E100D003839332
:0400E20000737863CC
:0400E30000032023D3
:0400E40000430313BF
:0400E500FE736CE357
:0400E6000004029779
:0400E700CE828293B0
:0400E80000040317F6
:0400E900CE0303132C
:0400EA000004039774
:0400EB00CD838393AB
:0400EC000062FC634F
:0400ED000002A483E6
:0400EE000093A023B8
:0400EF0000428293B6
:0400F00000438393B3
:0400F100FE62E8E3E0
:0400F20000040217ED
:0400F300CB820213A7
:0400F4000E8000EF8B
:0400F5000000006F98
:0400F600FE010113F3
:0400F70000812E2333
:0400F80002010413EA
:0400F900FEA4262318
:0400FA00FEB4242309
:0400FB00FEC42223FA
:0400FC00FE84270354
:0400FD00FEC4278393
:0400FE0002F70A6398
:0400FF000240006F4C
:04010000FEC427030F
:040101000047079319
:04010200FEF42623BE
:04010300FE842783CC
:040104000047869397
:04010500FED42423DD
:0401060000072703C4
:0401070000E7A0234A
:04010800FE84270347
:04010900FE44278306
:04010A00FCF71CE3FF
:04010B0000000013DD
:04010C0001C1240306
:04010D0002010113D7
:04010E000000806706
:04010F00FF010113D8
:040110000011262391
:040111000081242322
:0401120001010413D0
:04011300834186138B
:04011400000807B721
:0401150008078593BF
:04011600000467B7C3
:0401170034C7851351
:04011800F79FF0EF6E
:04011900000407B720
:04011A002F07861312
:04011B00000407B71E
:04011C0002078593BE
:04011D00000407B71C
:04011E00020785133C
:04011F00F5DFF0EF29
:04012000000807B715
:040121000807861332
:04012200000807B713
:0401230000078593B9
:04012400000807B711
:040125000007851337
:04012600F41FF0EFE3
:0401270055D000EFC0
:040128006F9000EFE5
:0401290000000013BF
:04012A0000C120836D
:04012B000081240328
:04012C0001010113B9
:04012D0000008067E7
:04012E00FE010113BA
:04012F0000112E236A
:0401300000812C23FB
:0401310002010413B0
:0401320000000513B1
:04013300058000EF54
:0401340000000013B4
:04013500088000EF4F
:04013600000807B7FF
:0401370001478613E3
:04013800000807B7FD
:040139000147859362
:04013A00000807B7FB
:04013B0001478513E0
:04013C00174010EF69
:04013D008441A7034F
:04013E008481A6838F
:04013F0084C1A7834D
:04014000000786131B
:04014100000685939C
:04014200000705139A
:04014300DE5FF0EF9C
:04014400FEA42623CC
:04014500001005138E
:0401460019D010EFCD
:04014700FEC42503CA
:04014800440010EF70
:04014900FE0101139F
:04014A0000112E234F
:04014B0000812C23E0
:04014C000201041395
:04014D00FEA42623C3
:04014E00404010EF2E
:04014F000080079392
:040150003007A07361
:040151000000001397
:040152000000001396
:0401530001C1208343
:0401540001812403FE
:04015500020101138F
:0401560000008067BE
:04015700FF01011390
:040158000011262349
:0401590000812423DA
:04015A000101041388
:04015B000000061387
:04015C000000059307
:04015D00000807B7D8
:04015E000A87851374
:04015F00198000EF14
:04016000000807B7D5
:0401610008078513F3
:040162004E5000EF0C
:040163000000001385
:0401640000C1208333
:0401650000812403EE
:04016600010101137F
:0401670000008067AD
:04016800FD01011381
:040169000211262336
:04016A0002812423C7
:04016B000301041375
:04016C00FCA42E239E
:04016D00FCB42C238F
:04016E00FCC42A2380
:04016F00FDC4278321
:040170000007A7835A
:04017100FEF426234F
:04017200FEC427831D
:040173000287871365
:04017400FDC427831C
:040175000087A783D5
:040176000007869365
:04017700FD4426031A
:04017800FD8425835A
:040179000007051363
:04017A00644000EFEE
:04017B0000050793E1
:04017C0000078513E0
:04017D0002C1208318
:04017E0002812403D3
:04017F000301011364
:040180000000806794
:04018100FD01011368
:04018200021126231D
:0401830002812423AE
:04018400030104135C
:04018500FCA42E2385
:04018600FCB42C2376
:04018700FCC42A2367
:04018800FDC4278308
:040189000007A78341
:04018A00FEF4262336
:04018B00FEC4278304
:04018C00028787134C
:04018D00FDC4278303
:04018E000087A783BC
:04018F00000786934C
:04019000FD44260301
:04019100FD84258341
:04019200000705134A
:0401930000D000EFA9
:0401940000050793C8
:0401950000078513C7
:0401960002C12083FF
:0401970002812403BA
:04019800030101134B
:04019900000080677B
:04019A00FD0101134F
:04019B000211262304
:04019C000281242395
:04019D000301041343
:04019E00FCA42E236C
:04019F00FDC42783F1
:0401A0000007A7832A
:0401A100FEF426231F
:0401A200FEC42783ED
:0401A3000287871335
:0401A400FDC42783EC
:0401A5000087A783A5
:0401A6000007859336
:0401A7000007051335
:0401A800420000EF22
:0401A90000050793B3
:0401AA0000078513B2
:0401AB0002C12083EA
:0401AC0002812403A5
:0401AD000301011336
:0401AE000000806766
:0401AF00FD0101133A
:0401B00002112623EF
:0401B1000281242380
:0401B200030104132E
:0401B300FCA42E2357
:0401B400FCB42C2348
:0401B500FCC42A2339
:0401B600FDC42783DA
:0401B7000007A78313
:0401B800FEF4262308
:0401B900FEC42783D6
:0401BA00028787939E
:0401BB00FD442603D6
:0401BC00FD84258316
:0401BD00000785139F
:0401BE00434000EFCB
:0401BF00000507939D
:0401C000000785139C
:0401C10002C12083D4
:0401C200028124038F
:0401C3000301011320
:0401C4000000806750
:0401C500FD01011324
:0401C60002112623D9
:0401C700028124236A
:0401C8000301041318
:0401C900FCA42E2341
:0401CA00FCB42C2332
:0401CB00FCC42A2323
:0401CC00FDC42783C4
:0401CD000010071304
:0401CE0002E7A02381
:0401CF00FDC42783C1
:0401D0000207A783F8
:0401D100FEF42623EF
:0401D200FDC42783BE
:0401D3000007A783F7
:0401D40000478793C6
:0401D5000007871385
:0401D600FEC42783B9
:0401D70000F72023EA
:0401D800FD8425037A
:0401D900FD44258339
:0401DA000000071307
:0401DB00FDC42683B6
:0401DC00000407B75D
:0401DD007D07861301
:0401DE00441000EFDA
:0401DF00FDC42783B1
:0401E0000207A2234D
:0401E100FDC42783AF
:0401E20000878713F8
:0401E3008501A5836A
:0401E400FDC42683AD
:0401E500000417B744
:0401E600A087861355
:0401E70000070513F5
:0401E8000F5000EFC5
:0401E9000005079373
:0401EA000007DA63CD
:0401EB00FDC42783A5
:0401EC008000073751
:0401ED00FFF74713BE
:0401EE0000E7A22361
:0401EF0000000013F9
:0401F00002C12083A5
:0401F1000281240360
:0401F20003010113F1
:0401F3000000806721
:0401F400FA010113F8
:0401F50004812E2330
:0401F60006010413E7
:0401F700FAA426231D
:0401F800FAC427839B
:0401F900FCF42223CD
:0401FA00FC44278317
:0401FB000007A783CF
:0401FC00FCF42423C8
:0401FD00FA042C23B1
:0401FE00FC842783D3
:0401FF00004787939B
:040200000007A783C9
:04020100FCF42623C0
:04020200FCC427838E
:04020300FCF42823BC
:04020400FD0427834B
:040205003007F79334
:040206001C078E63E0
:04020700FD04278348
:040208001007F79351
:040209000E078663F3
:04020A00000107B731
:04020B00FAF42E23B0
:04020C00FC44278304
:04020D000287A7833A
:04020E0000178793BB
:04020F007FF7F793EB
:04021000FCF42A23AD
:04021100FC442783FF
:0402120002C7A783F5
:04021300FD4427037C
:0402140006F7026384
:04021500FC842783BB
:040216000007A783B3
:04021700FCF42C23A4
:04021800FD842783B7
:04021900FAF42E23A2
:04021A00FBC42703F7
:04021B00000087B7A1
:04021C0000F777B3BD
:04021D0004078463EB
:04021E00FC442783F2
:04021F000287A78328
:04022000FBC42703F1
:040221000FF7771349
:04022200FC442683EF
:0402230000F687B3A7
:0402240002E78C233E
:04022500FC442783EB
:040226000287A78321
:0402270000178793A2
:040228007FF7F71352
:04022900FC442783E7
:04022A0002E7A42320
:04022B0000000013BC
:04022C00F81FF06F58
:04022D0000000013BA
:04022E000080006FDD
:04022F0000000013B8
:04023000FBC42703E1
:04023100000107B70A
:0402320004F7646306
:04023300FC442783DD
:040234000207A78393
:04023500FFE7F713D5
:04023600FC442783DA
:0402370002E7A02317
:04023800FC442783D8
:040239000207A7838E
:04023A00FCF42E237F
:04023B00FC84278395
:04023C00004787935D
:04023D00000787131C
:04023E00FDC4278351
:04023F0000F7202381
:04024000FC84278390
:040241000047879358
:040242000007A78387
:04024300FEF4202382
:04024400FD0427830B
:040245002007F79304
:04024600EE0780E35C
:04024700FD04278308
:040248000107D79340
:04024900FCF420237E
:04024A0005C0006F7C
:04024B00FC442783C5
:04024C000347A7833A
:04024D00FC44270343
:04024E0000F707B3FB
:04024F00000017375D
:0402500000F707B3F9
:040251008387C78355
:04025200FEF4222371
:04025300FC8427837D
:04025400FE4427033A
:0402550000E7A023FB
:04025600FC442783BA
:040257000347A7832F
:040258000017879371
:040259007FF7F71321
:04025A00FC442783B6
:04025B0002E7AA23E9
:04025C0000100793F4
:04025D00FAF42C2360
:04025E00FC042783F2
:04025F00FFF787938B
:04026000FCF4202367
:04026100FC042783EF
:0402620000078C63A2
:04026300FC442783AD
:040264000347A703A2
:04026500FC442783AB
:040266000307A78360
:04026700F8F718E3A9
:04026800FC042783E8
:04026900E4078AE339
:04026A00FC442783A6
:04026B000207A7835C
:04026C00FFD7F713AE
:04026D00FC442783A3
:04026E0002E7A023E0
:04026F00FC442783A1
:040270000207A78357
:04027100FEF4242350
:04027200FC4427839E
:040273000007A78356
:040274000047879325
:0402750000078713E4
:04027600FE84278358
:0402770000F7202349
:04027800FC84278358
:040279000047879320
:04027A000007A7834F
:04027B00FEF4262344
:04027C00E09FF06FA0
:04027D00000000136A
:04027E000000001369
:04027F0005C124038E
:04028000060101135F
:040281000000806792
:04028200FD01011366
:0402830002812623AB
:04028400030104135B
:04028500FCA42E2384
:04028600FDC4278309
:04028700FEF420233E
:04028800FE042783C6
:040289000007A78340
:04028A00004787930F
:04028B000007A7833E
:04028C00FEF4222337
:04028D00FE44278381
:04028E00FEF4242333
:04028F00FE8427833F
:040290004007F79399
:0402910002078C6371
:04029200FE042783BC
:040293000207A78334
:040294004007E793A5
:04029500FEF426232A
:04029600FE042783B8
:040297000007A78332
:040298000047879301
:0402990000078713C0
:04029A00FEC42783F4
:04029B0000F7202325
:04029C00FE042783B2
:04029D000207A2238F
:04029E000340006FAA
:04029F00FE042783AF
:0402A0000247A70367
:0402A100800007B71B
:0402A200FFC7C79338
:0402A30002E7E0632B
:0402A400FE042783AA
:0402A5000247A783E2
:0402A60000178713A3
:0402A700FE042783A7
:0402A80002E7A223A4
:0402A900FE042783A5
:0402AA000247A783DD
:0402AB008501A7839F
:0402AC0000078513AF
:0402AD0002C1240363
:0402AE000301011334
:0402AF000000806764
:0402B000FE01011337
:0402B10000812E2377
:0402B200020104132E
:0402B300FEA426235C
:0402B400FEB424234D
:0402B50001C0006F15
:0402B600FE84270398
:0402B700000047B745
:0402B80000F777B321
:0402B9000007866351
:0402BA00FF50079357
:0402BB000300006FCD
:0402BC00FEC42783D2
:0402BD000347A70349
:0402BE00FEC42783D0
:0402BF000307A78307
:0402C00000F70C63D4
:0402C100FEC42783CD
:0402C2000247A70345
:0402C300FEC42783CB
:0402C4000047A783C5
:0402C500FCF762E3FD
:0402C600000007939A
:0402C7000007851394
:0402C80001C1240349
:0402C900020101131A
:0402CA000000806749
:0402CB00FD0101131D
:0402CC000281262362
:0402CD000301041312
:0402CE00FCA42E233B
:0402CF00FCB42C232C
:0402D000FCC42A231D
:0402D100FE70079321
:0402D200FEF42423EF
:0402D300FD8427037C
:0402D400000077B7F8
:0402D500A017879354
:0402D60000F70C63BE
:0402D700FD84270378
:0402D800000077B7F4
:0402D900A027879340
:0402DA0006F70263BE
:0402DB000AC0006FE6
:0402DC00FDC42783B3
:0402DD000047A7032C
:0402DE00800007B7DE
:0402DF00FFF7C793CB
:0402E00008F70663B2
:0402E100FD4427832E
:0402E2000007A783E7
:0402E300FEF42623DC
:0402E400FEC427032A
:0402E500001007936B
:0402E60000E7DE63EC
:0402E700FEC4270327
:0402E800800007B7D4
:0402E900FFF7C793C1
:0402EA0000F70663B0
:0402EB00FEC42783A3
:0402EC0000C0006FDF
:0402ED00800007B7CF
:0402EE00FFE7C793CC
:0402EF00FDC4270320
:0402F00000F72223CE
:0402F100FE042423C0
:0402F2000440006F55
:0402F300FDC427839C
:0402F4000047A70315
:0402F500800007B7C7
:0402F600FFF7C793B4
:0402F70002F70C639B
:0402F800FDC4278397
:0402F9000247A7030E
:0402FA00FDC4278395
:0402FB000047A7838E
:0402FC0000F737B31D
:0402FD000FF7F7936D
:0402FE00000787135B
:0402FF00FD44278310
:0403000000E7A0234F
:04030100FE042423AF
:0403020000C0006FC8
:0403030000000013E3
:040304000080006F06
:0403050000000013E1
:04030600FE842783C7
:040307000007851353
:0403080002C1240307
:0403090003010113D8
:04030A000000806708
:04030B00FC010113DD
:04030C0002112E2389
:04030D0002812C231A
:04030E0004010413CF
:04030F00FCA4262301
:04031000FCB42423F2
:04031100FCC42223E3
:04031200FCD42023D4
:04031300FC842783BC
:04031400FCF42823AA
:040315001280006FE3
:04031600FCC4278379
:040317000287A7832F
:04031800FCF42C23A2
:04031900FCC4278376
:04031A0002C7A783EC
:04031B00FCF42E239D
:04031C00FD84270332
:04031D00FDC4278371
:04031E0000F76C6315
:04031F00FD8427032F
:04032000FDC427836E
:0403210040F707B3E7
:04032200FCF42A239A
:040323000180006FE6
:04032400000017B707
:0403250080078713B3
:04032600FDC4278368
:0403270040F707B3E1
:04032800FCF42A2394
:04032900FD442783E5
:04032A0006078E63D1
:04032B00FC442783E4
:04032C00FD44270362
:04032D0000E7F6638C
:04032E00FC442783E1
:04032F00FCF42A238D
:04033000FCC427835F
:0403310003878713A4
:04033200FDC427835C
:0403330000F707B315
:04033400FD4426035B
:0403350000078593A5
:04033600FD0425039A
:040337004B9000EFF8
:04033800FD04270396
:04033900FD442783D5
:04033A0000F707B30E
:04033B00FCF4282383
:04033C00FC44270353
:04033D00FD442783D1
:04033E0040F707B3CA
:04033F00FCF4222385
:04034000FDC42703CE
:04034100FD442783CD
:0403420000F707B306
:040343007FF7F71336
:04034400FCC427834B
:0403450002E7A62302
:04034600FC442783C9
:04034700F2F04EE39F
:040348000080006FC2
:04034900000000139D
:04034A00FD04270384
:04034B00FC84278384
:04034C0004F71C6333
:04034D00FC04270382
:04034E00000047B7AD
:04034F0000F777B389
:0403500004079863A3
:040351000000001395
:04035200FCC427833D
:040353000287A783F3
:04035400FD842703FA
:0403550000F71C632E
:04035600FCC4278339
:040357000247A703AF
:04035800FCC4278337
:040359000047A7832F
:04035A00FEF760E367
:04035B00FCC4278334
:04035C000287A783EA
:04035D00FD842703F1
:04035E0002F700633F
:04035F00FC442783B0
:04036000ECF04CE38E
:040361000180006FA8
:040362000000001384
:040363000100006F26
:040364000000001382
:040365000080006FA5
:040366000000001380
:04036700FD04270367
:04036800FC84278367
:0403690006F704632C
:04036A000080079375
:04036B003007B7F3AD
:04036C00FEF4262352
:04036D00FEC4278320
:04036E00FEF4202356
:04036F00FCC4278320
:040370000207A78356
:040371000017E71377
:04037200FCC427831D
:0403730002E7A023DA
:04037400FCC427831B
:040375000207A78351
:04037600FEF422234C
:04037700FCC4278318
:040378000007A78350
:04037900004787931F
:04037A0000078713DE
:04037B00FE44278392
:04037C0000F7202343
:04037D00FE042783D0
:04037E00FEF4242342
:04037F00FE8427834E
:040380000087F79368
:040381003007A0732E
:040382000000001364
:04038300FD0427034B
:04038400FC8427834B
:0403850000F70A6310
:04038600FD04270348
:04038700FC84278348
:0403880040F707B380
:040389000200006FFF
:04038A00FC04270345
:04038B00000047B770
:04038C0000F777B34C
:04038D00000786637C
:04038E00FF50079382
:04038F000080006F7B
:04039000FFB0079320
:0403910000078513C9
:0403920003C1208300
:0403930003812403BB
:04039400040101134C
:04039500000080677D
:04039600FC01011352
:0403970002112E23FE
:0403980002812C238F
:040399000401041344
:04039A00FCA4262376
:04039B00FCB4242367
:04039C00FCC4222358
:04039D00FCD4202349
:04039E00FC04282310
:04039F00FC84278330
:0403A000FCF42C231A
:0403A1000EC0006F1B
:0403A200FCC42783ED
:0403A3000307A78322
:0403A400FCF42E2314
:0403A500FCC42783EA
:0403A6000347A783DF
:0403A700FCF4282317
:0403A800FDC4270366
:0403A900FD042783A5
:0403AA0000F77E6377
:0403AB00FD04270323
:0403AC00FDC42783E2
:0403AD0040F707B35B
:0403AE00FFF787933B
:0403AF00FCF42A230D
:0403B0000340006F97
:0403B100FD0427839D
:0403B20000078E634F
:0403B300000017B778
:0403B4008007871324
:0403B500FDC42783D9
:0403B60040F707B352
:0403B700FCF42A2305
:0403B8000140006F91
:0403B9007FF00713B7
:0403BA00FDC42783D4
:0403BB0040F707B34D
:0403BC00FCF42A2300
:0403BD00FD44278351
:0403BE000807826347
:0403BF00FC44278350
:0403C000FD442703CE
:0403C10000E7F663F8
:0403C200FC4427834D
:0403C300FCF42A23F9
:0403C400FCC427034B
:0403C500000017B766
:0403C600838787930F
:0403C70000F7073301
:0403C800FDC42783C6
:0403C90000F707B37F
:0403CA00FD442603C5
:0403CB00FC84258306
:0403CC00000785138E
:0403CD00261000EF07
:0403CE00FC84270381
:0403CF00FD4427833F
:0403D00000F707B378
:0403D100FCF42423F1
:0403D200FC442703BD
:0403D300FD4427833B
:0403D40040F707B334
:0403D500FCF42223EF
:0403D600FDC4270338
:0403D700FD44278337
:0403D80000F707B370
:0403D9007FF7F713A0
:0403DA00FCC42783B5
:0403DB0002E7A8236A
:0403DC00FC44278333
:0403DD00F0F04AE30F
:0403DE000080006F2C
:0403DF000000001307
:0403E00000800793FF
:0403E1003007B7F337
:0403E200FEF42623DC
:0403E300FEC42783AA
:0403E400FEF42023E0
:0403E500FCC42783AA
:0403E6000207A783E0
:0403E7000027E713F1
:0403E800FCC42783A7
:0403E90002E7A02364
:0403EA00FCC42783A5
:0403EB000207A783DB
:0403EC00FEF42223D6
:0403ED00FCC42783A2
:0403EE000007A783DA
:0403EF0000478793A9
:0403F0000007871368
:0403F100FE4427831C
:0403F20000F72023CD
:0403F300FE0427835A
:0403F400FEF42423CC
:0403F500FE842783D8
:0403F6000087F793F2
:0403F7003007A073B8
:0403F80000000013EE
:0403F900FC44278316
:0403FA0004F0546354
:0403FB00FC042703D4
:0403FC00000047B7FF
:0403FD0000F777B3DB
:0403FE0004079263FB
:0403FF0000000013E7
:04040000FCC427838E
:040401000347A78383
:04040200FD042703CB
:0404030000F71C637F
:04040400FCC427838A
:040405000247A70300
:04040600FCC4278388
:040407000047A78380
:04040800FEF760E3B8
:04040900FCC4278385
:04040A000247A7837B
:04040B0000079C63E7
:04040C00FC44278302
:04040D00F2F04EE3D8
:04040E000100006F7A
:04040F0000000013D6
:040410000080006FF9
:0404110000000013D4
:04041200FC8427033C
:04041300FD842783BA
:0404140000F70A6380
:04041500FC84270339
:04041600FD842783B7
:0404170040F707B3F0
:040418000200006F6F
:04041900FC042703B5
:04041A00000047B7E0
:04041B0000F777B3BC
:04041C0000078663EC
:04041D00FF500793F2
:04041E000080006FEB
:04041F00FFB0079390
:040420000007851339
:0404210003C1208370
:04042200038124032B
:0404230004010113BC
:0404240000008067ED
:04042500FC010113C2
:0404260002812E23FE
:0404270004010413B5
:04042800FCA42623E7
:04042900FCB42423D8
:04042A00FCC42223C9
:04042B00FCD42023BA
:04042C0000000713B2
:04042D000000079331
:04042E00FEE42423A1
:04042F00FEF426238E
:040430008501A78318
:0404310012078063CB
:04043200FCC427835C
:0404330010078863C3
:04043400FCC427835A
:04043500FC44270359
:0404360000E7A82310
:04043700FCC4278357
:04043800FC04270396
:0404390000E7AA230B
:04043A0000800793A4
:04043B003007B7F3DC
:04043C00FEF4222385
:04043D00FE442783CF
:04043E00FCF42A237D
:04043F008581A70309
:0404400085C1A78348
:04044100FEE424238E
:04044200FEF426237B
:04044300FC8427838B
:040444000007881312
:040445000000089318
:04044600FE84260307
:04044700FEC4268346
:0404480000C80733AE
:040449000007059310
:04044A000105B5B340
:04044B0000D887B39B
:04044C0000F586B37E
:04044D00000687938B
:04044E00000706138A
:04044F000007869389
:040450000010051380
:04045100000005930F
:0404520000A60733C6
:040453000007081383
:0404540000C8383371
:0404550000B687B3B3
:0404560000F806B3F1
:040457000006879381
:04045800FCC4268337
:0404590000E6A423F2
:04045A0000F6A623DF
:04045B00FCC4278333
:04045C000008273736
:04045D00AD070713CD
:04045E00FCE42E2369
:04045F00FEF4202364
:04046000FE042783EC
:04046100FDC42703AC
:0404620000E7A223EA
:04046300FDC427832A
:040464000007A703E3
:04046500FE042783E7
:0404660000E7A023E8
:04046700FDC4278326
:040468000007A7835F
:04046900FE04270363
:04046A0000E7A223E2
:04046B00FDC4278322
:04046C00FE04270360
:04046D0000E7A023E1
:04046E000000001377
:04046F00FD4427839E
:04047000FCF42C2349
:04047100FD8427835C
:040472000087F79375
:040473003007A0733B
:040474000000001371
:0404750000000793E9
:040476000100006F12
:04047700FEA0079349
:040478000080006F91
:04047900F7A007934E
:04047A0000078513DF
:04047B0003C1240392
:04047C000401011363
:04047D000000806794
:04047E00FE01011367
:04047F0000812E23A7
:04048000020104135E
:04048100FE0426232C
:040482000180006F86
:04048300FEC4278309
:040484000817A00FA6
:04048500FEC4278307
:04048600020787934F
:04048700FEF4262336
:04048800FEC4270384
:04048900000017B7A1
:04048A00FEF762E334
:04048B00000000135A
:04048C000000001359
:04048D0001C1240382
:04048E000201011353
:04048F000000806782
:04049000FE01011355
:0404910000812E2395
:04049200020104134C
:04049300FEA426237A
:04049400FEB424236B
:04049500FEC422235C
:04049600FE44278376
:0404970000078513C2
:0404980001C1240377
:040499000201011348
:04049A000000806777
:04049B00FE0101134A
:04049C0000112E23FA
:04049D0000812C238B
:04049E000201041340
:04049F00FEA426236E
:0404A000000827B772
:0404A100AC0785938C
:0404A200FEC425036C
:0404A300064000EF20
:0404A40000050793B5
:0404A50000078513B4
:0404A60001C12083ED
:0404A70001812403A8
:0404A8000201011339
:0404A9000000806768
:0404AA00FF0101133A
:0404AB0000112623F3
:0404AC000081242384
:0404AD000101041332
:0404AE00000827B764
:0404AF00ACC7A783AC
:0404B00000078C6352
:0404B100000827B761
:0404B200ACC7A783A9
:0404B300000780E7D7
:0404B40000050793A5
:0404B5000080006F54
:0404B60086018793A1
:0404B70000078513A2
:0404B80000C12083DC
:0404B9000081240397
:0404BA000101011328
:0404BB000000806756
:0404BC00FD0101132A
:0404BD0002112623DF
:0404BE000281242370
:0404BF00030104131E
:0404C000FCA42E2347
:0404C100FCB42C2338
:0404C200FDC42783CB
:0404C3000007886343
:0404C400FDC42783C9
:0404C5000087A78382
:0404C60000079E632A
:0404C700F8DFF0EF7B
:0404C8000005071311
:0404C9000160079334
:0404CA0000F72023F4
:0404CB00FEA00793F5
:0404CC000540006F78
:0404CD00FDC42783C0
:0404CE00FD8427037F
:0404CF00FEE4242300
:0404D000FEF42623ED
:0404D100FEC42783BB
:0404D200FE8427037A
:0404D30000E7A22379
:0404D400FE842783F8
:0404D5000007A70372
:0404D600FEC42783B6
:0404D70000E7A02377
:0404D800FE842783F4
:0404D9000007A783EE
:0404DA00FEC4270332
:0404DB0000E7A22371
:0404DC00FE842783F0
:0404DD00FEC427032F
:0404DE0000E7A02370
:0404DF000000001306
:0404E000000007937E
:0404E1000007851378
:0404E20002C12083B0
:0404E300028124036B
:0404E40003010113FC
:0404E500000080672C
:0404E600FF010113FE
:0404E7000081262347
:0404E80001010413F7
:0404E9000000100FF0
:0404EA0000000013FB
:0404EB0000C1240325
:0404EC0001010113F6
:0404ED000000806724
:0404EE00FD010113F8
:0404EF0002112623AD
:0404F000028124233E
:0404F10003010413EC
:0404F200FEA426231B
:0404F300FEB424230C
:0404F400FEC42223FD
:0404F500FED42023EE
:0404F600FCE42E23D1
:0404F700FDC4270316
:0404F800FE04268355
:0404F900FE44260394
:0404FA00FE842583D4
:0404FB00FEC4250313
:0404FC0001C000EF4C
:0404FD00000507935C
:0404FE00000785135B
:0404FF0002C1208393
:04050000028124034D
:0405010003010113DE
:04050200000080670E
:04050300FA010113E5
:0405040004812E231D
:0405050006010413D4
:04050600FAA42E2302
:04050700FAB42C23F3
:04050800FAC42A23E4
:04050900FAD42823D5
:04050A00FAE42623C6
:04050B00FEA00793B4
:04050C00FCF42223B6
:04050D00FB842783C1
:04050E00FCF42423B2
:04050F00FC8427033E
:0405100000F007935D
:0405110012E7C863C2
:0405120000800793CB
:040513003007B7F303
:04051400FCF42823A8
:04051500FD04278337
:04051600FCF42623A8
:04051700000827B7FA
:04051800B507871389
:04051900FC842783B4
:04051A00003797937C
:04051B0000F707B32B
:04051C00FB44270372
:04051D0000E7A02330
:04051E00000827B7F3
:04051F00B507871382
:04052000FC842783AD
:040521000037979375
:0405220000F707B324
:04052300FB042703AB
:0405240000E7A22327
:04052500FB442783E9
:0405260006078263DF
:04052700FC842783A6
:04052800FBC42703E6
:04052900FCE42A23A1
:04052A00FCF42C238E
:04052B00FD84270321
:04052C0000F0079341
:04052D0000E7E86398
:04052E00FD8427839E
:04052F0001078793A6
:040530000080006FD8
:04053100FFF007933D
:04053200FCF42E2384
:04053300FDC4278359
:040534000007D66383
:04053500FDC4278357
:040536000800006F4A
:04053700FDC4278355
:04053800FCF42C2380
:04053900FD84278393
:04053A000010071393
:04053B0000F717B3FB
:04053C003047A07331
:04053D000000079320
:04053E000600006F44
:04053F00FC8427838E
:04054000FBC42703CE
:04054100FEE4202391
:04054200FEF422237E
:04054300FE44270348
:0405440000F0079329
:0405450000E7E86380
:04054600FE442783C5
:04054700010787938E
:040548000080006FC0
:04054900FFF0079325
:04054A00FEF4242374
:04054B00FE84278380
:04054C000007D6636B
:04054D00FE8427837E
:04054E000200006F38
:04054F00FE8427837C
:04055000FEF4222370
:04055100FE442783BA
:04055200001007137B
:0405530000F717B3E3
:040554003047B07309
:040555000000079308
:04055600FCF422236C
:04055700FCC4278336
:04055800FEF4262364
:04055900FEC4278332
:04055A000087F7938C
:04055B003007A07352
:04055C000000001388
:04055D00FC442783B0
:04055E0000078513FA
:04055F0005C12403AB
:04056000060101137C
:0405610000008067AF
:04056200FD01011383
:040563000211262338
:0405640002812423C9
:040565000301041377
:04056600FCA42E23A0
:04056700FCB42C2391
:04056800FCC42A2382
:04056900FCD4282373
:04056A00FD04260363
:04056B00FD442583A3
:04056C00FD842503E2
:04056D00111000EF7A
:04056E00FEA426239E
:04056F00FEC427831C
:040570000807C8634D
:04057100000817B7B0
:0405720010878693D5
:04057300FEC4270398
:0405740000070793E2
:040575000017979341
:0405760000E787B360
:04057700002797932F
:0405780000F687B34F
:040579000007A703CD
:04057A00FDC4278312
:04057B0000E7A023D2
:04057C00000817B7A5
:04057D0010878693CA
:04057E00FEC427038D
:04057F0000070793D7
:040580000017979336
:0405810000E787B355
:040582000027979324
:0405830000F687B344
:040584000047A70382
:04058500FDC4278307
:0405860000E7A223C5
:04058700000817B79A
:0405880010878693BF
:04058900FEC4270382
:04058A0000070793CC
:04058B00001797932B
:04058C0000E787B34A
:04058D000027979319
:04058E0000F687B339
:04058F000087A70337
:04059000FDC42783FC
:0405910000E7A423B8
:04059200FEC425037B
:04059300090000EF6C
:040594000000001350
:0405950002C12083FC
:0405960002812403B7
:040597000301011348
:040598000000806778
:04059900FE0101134B
:04059A0000112E23FB
:04059B0000812C238C
:04059C000201041341
:04059D00FEA426236F
:04059E00FEB4242360
:04059F00FEC4222351
:0405A0001FF00693AF
:0405A100001006132D
:0405A200FEC42583EB
:0405A300000817B77E
:0405A4001147851363
:0405A500EF5FF0EF25
:0405A6001FF00693A9
:0405A7000000061337
:0405A800FE84258325
:0405A900000817B778
:0405AA00108785131E
:0405AB00EDDFF0EFA1
:0405AC001FF00693A3
:0405AD000010061321
:0405AE00FE4425835F
:0405AF00000817B772
:0405B0001207851396
:0405B100EC5FF0EF1C
:0405B2000000001332
:0405B30001C12083DF
:0405B400018124039A
:0405B500020101132B
:0405B600000080675A
:0405B700FE0101132D
:0405B80000812E236D
:0405B9000201041324
:0405BA00FEA4262352
:0405BB00FEC4270350
:0405BC000020079381
:0405BD0004E7D66316
:0405BE00000817B763
:0405BF001087869388
:0405C000FEC427034B
:0405C1000007079395
:0405C20000179793F4
:0405C30000E787B313
:0405C40000279793E2
:0405C50000F687B302
:0405C6000007A42363
:0405C700000817B75A
:0405C800108786937F
:0405C900FEC4270342
:0405CA00000707938C
:0405CB0000179793EB
:0405CC0000E787B30A
:0405CD0000279793D9
:0405CE0000F687B3F9
:0405CF000007A0235E
:0405D0000000001314
:0405D10001C124033D
:0405D200020101130E
:0405D300000080673D
:0405D400FD01011311
:0405D5000281262356
:0405D6000301041306
:0405D700FCA42E232F
:0405D8000080079305
:0405D9003007B7F33D
:0405DA00FEF42623E2
:0405DB00FEC42783B0
:0405DC00FEF42023E6
:0405DD00FDC42783AF
:0405DE00FEF42423E0
:0405DF00FE842783EC
:0405E0000007A783E6
:0405E100FE8427036A
:0405E20000472703A4
:0405E30000E7A22368
:0405E400FE842783E7
:0405E5000047A783A1
:0405E600FE84270365
:0405E70000072703DF
:0405E80000E7A02365
:0405E900FE842783E2
:0405EA00FE84270361
:0405EB0000E7A22360
:0405EC00FE842783DF
:0405ED00FE8427035E
:0405EE0000E7A0235F
:0405EF0000000013F5
:0405F000FE0427835B
:0405F100FEF42223CF
:0405F200FE44278319
:0405F3000087F793F3
:0405F4003007A073B9
:0405F50000000013EF
:0405F60000000013EE
:0405F70002C1240316
:0405F80003010113E7
:0405F9000000806717
:0405FA00FE010113EA
:0405FB0000112E239A
:0405FC0000812C232B
:0405FD0001212A238B
:0405FE00013128237C
:0405FF0002010413DE
:04060000000827B710
:04060100AD07879327
:040602000007A783C3
:04060300FEF42223BC
:040604008581A70342
:0406050085C1A78381
:0406060000100513C8
:040607000000059357
:0406080000A706330E
:0406090000060813CC
:04060A0000E8383399
:04060B0000B786B3FB
:04060C0000D807B358
:04060D0000078693C9
:04060E0000060713C8
:04060F0000068793C7
:0406100084E1AC23B2
:0406110084F1AE239F
:040612000C40006F29
:04061300FE442783F7
:040614000007A783B1
:04061500FEF42423A8
:04061600FE442783F4
:040617000087A603AF
:0406180000C7A683EE
:040619008581A7032D
:04061A0085C1A7836C
:04061B00000685133D
:04061C0000078593BB
:04061D0008A5E863E1
:04061E00000685133A
:04061F0000078593B8
:0406200000B51863A6
:040621000006069336
:040622000007079333
:0406230006D7EC63A7
:04062400FE442783E6
:040625000107A7839F
:04062600FE44270364
:04062700014727035D
:0406280000070513AF
:04062900000780E75F
:04062A00FEA42623E1
:04062B00FEC427835F
:04062C0000079863C8
:04062D00FE4425035F
:04062E00E99FF0EF61
:04062F000480006FD4
:04063000FE442783DA
:040631000087A70394
:0406320000C7A783D3
:04063300FEC4268358
:040634000006891320
:040635000000099325
:04063600012706335F
:040637000006059321
:0406380000E5B5B371
:04063900013786B34C
:04063A0000D587B3AD
:04063B00000786939B
:04063C00000607139A
:04063D000006879399
:04063E00FE442683CD
:04063F0000E6A4230A
:0406400000F6A623F7
:04064100FE84278389
:04064200FEF422237D
:04064300FE44270347
:04064400000827B7CC
:04064500AD078793E3
:04064600F2F71AE3CA
:04064700000000139C
:04064800000000139B
:0406490001C1208348
:04064A000181240303
:04064B00014129033D
:04064C0001012983FC
:04064D000201011392
:04064E0000008067C1
:04064F00FF01011393
:0406500000812623DC
:04065100010104138C
:04065200FFF007931B
:040653003047B07309
:04065400000000138F
:0406550000C12403B9
:04065600010101138A
:0406570000008067B8
:04065800FF0101138A
:040659000000059305
:04065A0000812423D4
:04065B000011262341
:04065C00000504137E
:04065D0059C000EF91
:04065E000003E51799
:04065F0070452503BA
:0406600003C5278324
:0406610000078463A7
:04066200000780E726
:040663000004051377
:0406640052C030EF61
:0406650000B547B3E2
:040666000037F793CF
:0406670000C508B30F
:04066800060794638A
:0406690000300793C3
:04066A0006C7F0636C
:04066B00003577934C
:04066C00000507136B
:04066D0006079A637F
:04066E00FFC8F613B8
:04066F0040E606B3A8
:0406700002000793EA
:0406710008D7CE6375
:040672000005869366
:0406730000070793E2
:0406740002C77863DE
:040675000006A803D0
:04067600004787931F
:040677000046869320
:04067800FF07AE23A7
:04067900FEC7E8E3ED
:04067A00FFF60793ED
:04067B0040E787B31A
:04067C00FFC7F7932A
:04067D000047879318
:04067E0000F7073347
:04067F0000F585B34A
:040680000117686393
:04068100000080678E
:040682000005071355
:04068300051578637E
:040684000005C78323
:040685000017071340
:040686000015859343
:04068700FEF70FA3C8
:04068800FEE898E30D
:040689000000806786
:04068A000005C6831E
:04068B00001707133A
:04068C000037779329
:04068D00FED70FA3E2
:04068E00001585933B
:04068F00F6078EE3F9
:040690000005C68318
:040691000017071334
:040692000037779323
:04069300FED70FA3DC
:040694000015859335
:04069500FC079AE3E1
:04069600F61FF06FEC
:040697000000806778
:04069800FF0101134A
:040699000081262393
:04069A000200041343
:04069B000005A38330
:04069C000045A283F0
:04069D000085AF83A2
:04069E0000C5AF03E1
:04069F000105AE8320
:0406A0000145AE035F
:0406A1000185A30329
:0406A20001C5A803E3
:0406A3000205A68323
:0406A40002470713EF
:0406A50040E607B371
:0406A600FC772E238C
:0406A700FE572023B7
:0406A800FFF7222313
:0406A900FFE7242320
:0406AA00FFD726232D
:0406AB00FFC728233A
:0406AC00FE672A2398
:0406AD00FF072C23F4
:0406AE00FED72E2322
:0406AF0002458593E8
:0406B000FAF446E32F
:0406B1000005869327
:0406B20000070793A3
:0406B30002C778639F
:0406B4000006A80391
:0406B50000478793E0
:0406B60000468693E1
:0406B700FF07AE2368
:0406B800FEC7E8E3AE
:0406B900FFF60793AE
:0406BA0040E787B3DB
:0406BB00FFC7F793EB
:0406BC0000478793D9
:0406BD0000F7073308
:0406BE0000F585B30B
:0406BF000117686354
:0406C00000C124034E
:0406C100010101131F
:0406C200000080674D
:0406C3000005C783E4
:0406C4000017071301
:0406C5000015859304
:0406C600FEF70FA389
:0406C700FEE882E3E4
:0406C8000005C783DF
:0406C90000170713FC
:0406CA0000158593FF
:0406CB00FEF70FA384
:0406CC00FCE89EE3C5
:0406CD00FCDFF06FEF
:0406CE00FD01011316
:0406CF00028124235D
:0406D000000504130A
:0406D1000005851388
:0406D200029122234C
:0406D30002112623C7
:0406D4000005849306
:0406D5002D4000EFC5
:0406D60000150713F1
:0406D7000003E6979F
:0406D8004EC68693F1
:0406D90000E12623F3
:0406DA0003842783EB
:0406DB0001010713FF
:0406DC0000D12C23FA
:0406DD0000E12223F3
:0406DE00001006936F
:0406DF0000200713DD
:0406E000009128233A
:0406E10000A12A2327
:0406E20000D12E23F2
:0406E30000E12423EB
:0406E40000842483E7
:0406E50008078A6315
:0406E6000644A7031C
:0406E70000C4978331
:0406E800001777136D
:0406E900000716638D
:0406EA002007F713DB
:0406EB000A07046393
:0406EC000127971338
:0406ED00020742635B
:0406EE000644A70314
:0406EF00000026B72A
:0406F00000D7E7B395
:0406F100FFFFE6B76A
:0406F200FFF68693F6
:0406F30000D7773382
:0406F40000F4962355
:0406F50006E4A22352
:0406F60000040513E4
:0406F70000410613A5
:0406F80000048593E2
:0406F9005F5000EF5F
:0406FA000644A78388
:0406FB00001534139F
:0406FC004080043303
:0406FD0000B47413BE
:0406FE000017F79357
:0406FF00FFF40413ED
:0407000000079863F3
:0407010000C4D783D6
:040702002007F79342
:040703000207846302
:0407040002C120838B
:0407050000040513D4
:040706000281240345
:040707000241248304
:0407080003010113D5
:040709000000806705
:04070A0000040513CF
:04070B005A8000EF21
:04070C00F69FF06FF5
:04070D000584A503B7
:04070E003C0010EFAC
:04070F0002C1208380
:0407100000040513C9
:04071100028124033A
:0407120002412483F9
:0407130003010113CA
:0407140000008067FA
:040715000584A503AF
:04071600388010EF28
:0407170000C4978300
:04071800F51FF06F6A
:04071900000505933F
:04071A0000040517BB
:04071B00E7052503C6
:04071C00EC9FF06FEF
:04071D00FE010113C5
:04071E00012128236A
:04071F000005A90325
:0407200000812C2305
:0407210000912A23F6
:0407220000112E2371
:040723000131262357
:040724000141242348
:040725000005841334
:040726000005049333
:04072700040902635C
:040728000009298318
:0407290002098863D6
:04072A000009AA0315
:04072B00000A0E634F
:04072C00000A258317
:04072D0000058463DC
:04072E00FBDFF0EF0E
:04072F00000A059324
:040730000004851329
:04073100211000EFA4
:0407320000098593A2
:040733000004851326
:04073400205000EF62
:04073500000905931F
:040736000004851323
:040737001F9000EF20
:040738000004059321
:040739000181240313
:04073A0001C1208356
:04073B00010129038C
:04073C0000C129834C
:04073D0000812A030A
:04073E00000485131B
:04073F0001412483CD
:04074000020101139E
:040741001D10006F18
:040742000004079711
:04074300DD07A783A4
:0407440010A78A630D
:0407450004C525833F
:04074600FE0101139C
:0407470000912A23D0
:0407480000112E234B
:0407490000812C23DC
:04074A00012128233E
:04074B00013126232F
:04074C00000504930D
:04074D0004058063BC
:04074E00000009138B
:04074F000800099302
:04075000012587B345
:040751000007A403F6
:0407520000040E632E
:040753000004059306
:040754000004240376
:040755000004851304
:0407560017D000EFC9
:04075700FE0418E3A1
:0407580004C4A583AD
:040759000049091337
:04075A00FD391CE366
:04075B0000048513FE
:04075C00165000EF44
:04075D000404A58368
:04075E0000058663A9
:04075F0000048513FA
:04076000155000EF41
:040761001484A40355
:04076200020400632A
:0407630014C489131E
:0407640001240C63FD
:0407650000040593F4
:040766000004240364
:0407670000048513F2
:04076800135000EF3B
:04076900FE8918E30A
:04076A000544A5831A
:04076B00000586639C
:04076C0000048513ED
:04076D00121000EF77
:04076E000384A783D6
:04076F000407866392
:0407700003C4A78394
:0407710000048513E8
:04077200000780E715
:040773002E04A403A9
:0407740002040C630C
:0407750000042583D4
:040776000005866391
:0407770000048513E2
:04077800E95FF0EF56
:0407790000040593E0
:04077A0001812403D2
:04077B0001C1208315
:04077C00010129034B
:04077D0000C129830B
:04077E0000048513DB
:04077F00014124838D
:04078000020101135E
:040781000D10006FE8
:0407820001C120830E
:0407830001812403C9
:040784000141248388
:040785000101290342
:0407860000C1298302
:040787000201011357
:040788000000806786
:040789000000806785
:04078A00003577932C
:04078B00000507134B
:04078C0004079C635F
:04078D007F7F86B72D
:04078E00F7F6869361
:04078F00FFF00593DF
:040790000007260335
:040791000047071303
:0407920000D677B363
:0407930000D787B351
:0407940000C7E7B300
:0407950000D7E7B3EF
:04079600FEB784E343
:04079700FFC74683CF
:0407980040A707B3BC
:04079900040684636B
:04079A00FFD74683BC
:04079B0002068C6363
:04079C00FFE745032B
:04079D0000A0353350
:04079E0000F505332A
:04079F00FFE505135A
:0407A000000080676E
:0407A100FA0688E3E9
:0407A2000007478382
:0407A3000017071321
:0407A4000037769311
:0407A500FE0798E3D0
:0407A60040A707332E
:0407A700FFF7051340
:0407A8000000806766
:0407A900FFD78513DE
:0407AA000000806764
:0407AB00FFC78513EC
:0407AC000000806762
:0407AD0000050593AB
:0407AE000004051727
:0407AF00C205250357
:0407B0001B80006F3B
:0407B100FC01011333
:0407B20002C1242339
:0407B30002D1262326
:0407B40002F12A2301
:0407B50000060693A1
:0407B6000281079322
:0407B70000058613A0
:0407B80000050593A0
:0407B900000405171C
:0407BA00BF4525030F
:0407BB0000112E23D8
:0407BC0002E128230B
:0407BD0003012C23E5
:0407BE0003112E23D2
:0407BF0000F12623FC
:0407C000355010EFB1
:0407C10001C12083CF
:0407C200040101131A
:0407C300000080674B
:0407C400FD0101131F
:0407C5000171262375
:0407C60082418B934E
:0407C7000161282381
:0407C80000050B130A
:0407C900000BA50379
:0407CA0003212023C4
:0407CB0001312E23A7
:0407CC0001412C2398
:0407CD0001512A2389
:0407CE00018124235E
:0407CF0002112623CA
:0407D000028124235B
:0407D100029122234C
:0407D200019122234C
:0407D30000058C137E
:0407D400090010EF19
:0407D5000003EA171C
:0407D600128A2A0356
:0407D700148A290354
:0407D80000100A9370
:0407D900FFF0099391
:0407DA0002090863A5
:0407DB00004924832A
:0407DC00FFF484138F
:0407DD00020442636D
:0407DE0000249493CC
:0407DF00009904B3C6
:0407E000040C08639A
:0407E1001044A78396
:0407E20005878463A0
:0407E300FFF4041308
:0407E400FFC4849337
:0407E500FF3416E3E4
:0407E6000281240365
:0407E700000BA5035B
:0407E80002C12083A7
:0407E9000241248322
:0407EA0002012903DC
:0407EB0001C129839C
:0407EC0001812A035A
:0407ED0001412A8319
:0407EE0001012B03D7
:0407EF0000C12B8397
:0407F00000812C0355
:0407F10000412C8314
:0407F20003010113EB
:0407F30002C0106FC1
:0407F400004927830E
:0407F5000044A68393
:0407F600FFF78793EF
:0407F70004878E6382
:0407F8000004A22334
:0407F900FA0684E395
:0407FA0018892783B0
:0407FB00008A9733A6
:0407FC0000492C8301
:0407FD0000F777B3D7
:0407FE0002079263F9
:0407FF00000680E789
:040800000049270381
:04080100148A2783AB
:0408020001971463E3
:04080300F92780E36E
:04080400F80784E38A
:04080500000789134C
:04080600F55FF06F3B
:0408070018C9278362
:040808000844A58378
:0408090000F777334A
:04080A0000071C6364
:04080B00000B0513C6
:04080C00000680E77B
:04080D00FCDFF06FAD
:04080E000089222318
:04080F00FA9FF06FED
:040810000005851347
:04081100000680E776
:04081200FB9FF06FE9
:040813000000079347
:0408140000078863EE
:0408150000000517C3
:040816004F05051372
:040817000080006FEE
:0408180000008067F5
:04081900000505933E
:04081A000000069341
:04081B0000000613C0
:04081C0000000513C0
:04081D002F00206F19
:04081E00FF010113C2
:04081F00008124230D
:0408200000050413B8
:040821000005851336
:040822008601A02388
:040823000011262377
:0408240054D020EF9D
:04082500FFF0079346
:0408260000F50A636C
:0408270000C1208369
:040828000081240324
:0408290001010113B5
:04082A0000008067E3
:04082B008601A78318
:04082C00FE0786E35A
:04082D0000C1208363
:04082E0000F420238F
:04082F00008124031D
:0408300001010113AE
:0408310000008067DC
:040832000000259706
:04083300384585932C
:040834006490006F5D
:0408350006452783CA
:040836000017F7931D
:0408370000079863BB
:0408380000C557831D
:040839002007F7930A
:04083A0000078663CA
:04083B0000000513A1
:04083C0000008067D1
:04083D000585250305
:04083E00FF010113A2
:04083F00001126235B
:040840006E1000EF47
:0408410000C120834F
:04084200000005139A
:04084300010101139B
:0408440000008067C9
:0408450006452783BA
:040846000017F7930D
:0408470000079863AB
:0408480000C557830D
:040849002007F793FA
:04084A0000078663BA
:04084B000000051391
:04084C0000008067C1
:04084D0005852503F5
:04084E00FF01011392
:04084F00001126234B
:040850006B9000EFBA
:0408510000C120833F
:04085200000005138A
:04085300010101138B
:0408540000008067B9
:04085500FF0101138B
:0408560000912223C8
:04085700068007937D
:04085800FFF5849391
:0408590002F484B36E
:04085A000121202335
:04085B0000058913F8
:04085C0000812423D0
:04085D00001126233D
:04085E000744859333
:04085F00681000EF2E
:040860000005041378
:040861000205006329
:0408620000C50513B5
:04086300000420234A
:040864000124222326
:0408650000A42423A4
:04086600068486136B
:0408670000000593F5
:040868007C8010EF91
:0408690000C1208327
:04086A00000405136E
:04086B0000812403E1
:04086C0000412483A0
:04086D00000129035A
:04086E000101011370
:04086F00000080679E
:0408700000002597C8
:0408710028C585937E
:040872000003E51783
:04087300EB45250329
:040874005490006F2D
:04087500FE0101136C
:0408760000912A23A0
:0408770000050493E1
:04087800884185131B
:0408790000112E2319
:04087A0000812C23AA
:04087B00012128230C
:04087C0001312623FD
:04087D0001412423EE
:04087E0001512223DF
:04087F005E5000EFD8
:040880000384A783C3
:04088100140798635D
:040882000044A40387
:040883000000071753
:04088400EBC70713A4
:0408850002E4AE23B8
:040886002EC4879362
:040887000030071323
:040888002EE4A22395
:040889002EF4A42382
:04088A002E04A02375
:04088B00004007938F
:04088C0000F426232B
:04088D0000800613CE
:04088E0000000593CE
:04088F00000420231E
:04089000000422231B
:040891000004242318
:040892000604222313
:040893000004282312
:0408940000042A230F
:0408950000042C230C
:0408960005C405137D
:0408970070C010EF2E
:0408980000002A979B
:04089900DF8A8A93D5
:04089A0000002A1719
:04089B00E54A0A130D
:04089C000000299798
:04089D00ED49899305
:04089E000000291716
:04089F00F4490913FC
:0408A00005840513B3
:0408A10000842E237E
:0408A20003542023B8
:0408A30003442223C5
:0408A40003342423D2
:0408A50003242623DF
:0408A600539000EF7C
:0408A7000084A40322
:0408A800000107B78D
:0408A90000878793AA
:0408AA0000F426230D
:0408AB0000800613B0
:0408AC0000000593B0
:0408AD000004202300
:0408AE0000042223FD
:0408AF0000042423FA
:0408B00006042223F5
:0408B10000042823F4
:0408B20000042A23F1
:0408B30000042C23EE
:0408B40005C405135F
:0408B500694010EF97
:0408B600058405139D
:0408B70000842E2368
:0408B80003542023A2
:0408B90003442223AF
:0408BA0003342423BC
:0408BB0003242623C9
:0408BC004E1000EFEB
:0408BD0000C4A403CC
:0408BE00000207B776
:0408BF0001278793F3
:0408C00000F42623F7
:0408C100008006139A
:0408C200000005939A
:0408C30000042023EA
:0408C40000042223E7
:0408C50000042423E4
:0408C60006042223DF
:0408C70000042823DE
:0408C80000042A23DB
:0408C90000042C23D8
:0408CA0005C4051349
:0408CB0063C010EF07
:0408CC000584051387
:0408CD0000842E2352
:0408CE00035420238C
:0408CF000344222399
:0408D00003342423A6
:0408D10003242623B3
:0408D200489000EF5B
:0408D3000010079377
:0408D40002F4AC235B
:0408D5000181240376
:0408D60001C12083B9
:0408D7000141248334
:0408D80001012903EE
:0408D90000C12983AE
:0408DA0000812A036C
:0408DB0000412A832B
:0408DC0088418513B7
:0408DD000201011300
:0408DE004810006F4F
:0408DF00FE01011302
:0408E0000131262399
:0408E1000005099372
:0408E20088018513F1
:0408E30001212823A4
:0408E40000112E23AE
:0408E50000812C233F
:0408E60000912A2330
:0408E700445000EF8A
:0408E8000003E91709
:0408E900CDC9290349
:0408EA0003892783D4
:0408EB000A078E6307
:0408EC002E090913B5
:0408ED00FFF0049381
:0408EE000049278313
:0408EF000089240355
:0408F000FFF78793F4
:0408F1000007D863C1
:0408F2000900006F8A
:0408F3000684041360
:0408F400089784637A
:0408F50000C4170321
:0408F600FFF78793EE
:0408F700FE0718E3FD
:0408F800FFFF07B740
:0408F90000178793CA
:0408FA0000F42623BD
:0408FB000584051358
:0408FC0006042223A9
:0408FD003DD000EFFB
:0408FE0088018513D5
:0408FF003FD000EFF7
:04090000008006135A
:0409010000042023AB
:0409020000042423A6
:0409030000042223A7
:0409040000042823A0
:0409050000042A239D
:0409060000042C239A
:040907000000059354
:0409080005C405130A
:04090900544010EF57
:04090A000204282398
:04090B0002042A2395
:04090C00040422239A
:04090D000404242397
:04090E0001C1208380
:04090F0000040513C8
:04091000018124033A
:0409110001412483F9
:0409120001012903B3
:0409130000C1298373
:0409140002010113C8
:0409150000008067F7
:0409160000092403AD
:0409170000040C6369
:0409180000040913BB
:04091900F55FF06F27
:04091A0000090513B8
:04091B00D69FF0EF84
:04091C00F41FF06F65
:04091D001AC0059364
:04091E000009851334
:04091F00381000EF9D
:0409200000050413B7
:040921000205086360
:0409220000C50513F4
:0409230000400793F6
:040924000004202388
:0409250000F4222395
:0409260000A42423E2
:040927001A00061399
:040928000000059333
:040929004C4010EF3F
:04092A0000892023FD
:04092B0000040913A8
:04092C00F09FF06FD9
:04092D00000920237A
:04092E0088018513A4
:04092F0033D000EFD2
:0409300000C0079369
:0409310000F9A02306
:04093200F71FF06F4C
:04093300880185139F
:040934003110006F0F
:04093500880185139D
:040936003210006F0C
:04093700884185135B
:040938003010006F0C
:040939008841851359
:04093A003110006F09
:04093B00FF010113A4
:04093C008801851396
:04093D00001126235C
:04093E002E9000EF08
:04093F0000C1208350
:040940000003F517A4
:040941005D852503A8
:040942000000059715
:04094300BCC5859317
:040944000101011399
:040945001610006F19
:04094600FF01011399
:040947000000059710
:04094800BF8585934F
:040949000003F5179B
:04094A005B452503E1
:04094B00001126234E
:04094C00145000EF54
:04094D0000C1208342
:04094E008801851384
:04094F00010101138E
:040950002B90006F79
:04095100FF0101138E
:0409520000812423D9
:0409530000004797C2
:04095400E00787939E
:040955000000441743
:04095600DF84041323
:0409570040F4043331
:0409580000912223C5
:040959000011262340
:04095A00402454934E
:04095B0002048063AF
:04095C00FFC40413BD
:04095D0000F404336B
:04095E0000042783E7
:04095F00FFF484938A
:04096000FFC40413B9
:04096100000780E724
:04096200FE0498E314
:0409630000C120832C
:0409640000812403E7
:0409650000412483A6
:040966000101011377
:0409670000008067A5
:04096800FE01011378
:0409690000812C23BA
:04096A0000912A23AB
:04096B00012128231B
:04096C00013126230C
:04096D0001412423FD
:04096E000005899364
:04096F0000112E2322
:040970000003FA176F
:040971000F0A0A134C
:040972000005091360
:04097300478010EFBA
:04097400008A2703CB
:04097500000017B7B0
:04097600FEF78413F1
:04097700004724838E
:04097800FFC4F49331
:04097900008484333F
:04097A0041340433CD
:04097B0000C454134D
:04097C00FFF404136D
:04097D0000C414138B
:04097E0000F44E63D0
:04097F0000000593DC
:040980000009051352
:04098100205010EF03
:04098200008A27833D
:04098300009787B39F
:0409840002F508630D
:04098500000905134D
:04098600434010EFEB
:0409870001C1208307
:0409880001812403C2
:040989000141248381
:04098A00010129033B
:04098B0000C12983FB
:04098C0000812A03B9
:04098D00000005134E
:04098E00020101134E
:04098F00000080677D
:04099000408005B3EB
:040991000009051341
:040992001C1010EF36
:04099300FFF00793D7
:0409940004F50863FB
:0409950091818713B2
:0409960000072783AC
:04099700008A268329
:04099800408484B360
:040999000014E493CF
:04099A00408787B358
:04099B000009051337
:04099C000096A223FC
:04099D0000F720231C
:04099E003D4010EFD9
:04099F0001C12083EF
:0409A00001812403AA
:0409A1000141248369
:0409A2000101290323
:0409A30000C12983E3
:0409A40000812A03A1
:0409A5000010051326
:0409A6000201011336
:0409A7000000806765
:0409A80000000593B3
:0409A9000009051329
:0409AA00161010EF24
:0409AB00008A270394
:0409AC0000F00693BE
:0409AD0040E507B367
:0409AE00F4F6DEE39A
:0409AF008281A68318
:0409B00040D50533F6
:0409B1000017E793B1
:0409B20090A1AC2341
:0409B30000F7222304
:0409B400F45FF06F8D
:0409B500180582633C
:0409B600FF01011329
:0409B7000081242374
:0409B8000091222365
:0409B900000584139E
:0409BA00000504939D
:0409BB0000112623DE
:0409BC00354010EFC3
:0409BD00FFC42583CB
:0409BE00FF84071398
:0409BF000003F51725
:0409C000FB450513DB
:0409C100FFE5F793C4
:0409C20000F7063301
:0409C3000046268341
:0409C400008528037F
:0409C500FFC6F693E0
:0409C6001AC80263E6
:0409C70000D6222311
:0409C8000015F5938E
:0409C90000D6083319
:0409CA000A05906327
:0409CB00FF8423037F
:0409CC000048258337
:0409CD000003F89794
:0409CE00F8488893CA
:0409CF004067073343
:0409D0000087280371
:0409D100006787B381
:0409D2000015F59384
:0409D300151802638E
:0409D40000C7230332
:0409D500006826236D
:0409D60001032423D2
:0409D7001A05866314
:0409D8000017E6938B
:0409D90000D72223FE
:0409DA0000F62023E0
:0409DB001FF0069370
:0409DC0006F6EC63CC
:0409DD00FF87F69307
:0409DE000086869376
:0409DF000045258327
:0409E00000D506B385
:0409E1000006A60363
:0409E2000057D813CF
:0409E3000010079366
:0409E400010797B3BD
:0409E50000B7E7B3BD
:0409E600FF86859370
:0409E70000B726230C
:0409E80000C72423FD
:0409E90000F52223D0
:0409EA0000E6A02360
:0409EB0000E62623D9
:0409EC00008124035F
:0409ED0000C12083A2
:0409EE000004851369
:0409EF00004124831C
:0409F00001010113ED
:0409F1002880106FDB
:0409F2000048258311
:0409F3000015F59363
:0409F4000805866309
:0409F5000017E6936E
:0409F600FED42E23DA
:0409F70000F62023C3
:0409F8001FF0069353
:0409F900F8F6F8E331
:0409FA000097D693F9
:0409FB00004006139F
:0409FC0012D660634C
:0409FD000067D69326
:0409FE000396859344
:0409FF0003868613D2
:040A00000035959395
:040A010000B505B384
:040A02000005A683C2
:040A0300FF85859353
:040A040000D598631E
:040A05001540006F29
:040A06000086A6833D
:040A070000D588632B
:040A08000046A603FB
:040A0900FFC676139B
:040A0A00FEC7E8E358
:040A0B0000C6A583F9
:040A0C0000B72623E6
:040A0D0000D72423C7
:040A0E00008124033C
:040A0F0000C120837F
:040A100000E5A42336
:040A11000004851345
:040A120000412483F8
:040A130000E6A62330
:040A140001010113C8
:040A15001F80106FBF
:040A160000008067F5
:040A170000D787B3CA
:040A18000003F89748
:040A1900E588889351
:040A1A0000862683A9
:040A1B000D168C63C5
:040A1C0000C62803E5
:040A1D000017E59346
:040A1E0000F70633A4
:040A1F000106A62303
:040A200000D82423B3
:040A210000B72223D5
:040A220000F6202397
:040A2300EE1FF06F63
:040A240012059C63B8
:040A2500008625839F
:040A260000C62603DD
:040A270000F686B39C
:040A28000016E7933A
:040A290000C5A6233B
:040A2A0000B62423CB
:040A2B0000F722238B
:040A2C0000D70733B5
:040A2D0000D72023AB
:040A2E00EF9FF06FD7
:040A2F000015F59326
:040A300000D786B3B2
:040A310002059063C7
:040A3200FF84258395
:040A330040B707338E
:040A340000C727834D
:040A3500008726030D
:040A360000B686B3CD
:040A370000F626237C
:040A380000C7A4232C
:040A39000016E79329
:040A3A0000F722237C
:040A3B0000E524238B
:040A3C0082C1A78349
:040A3D00EAF6EEE304
:040A3E008901A58302
:040A3F000004851317
:040A4000CA1FF0EFEA
:040A4100EADFF06F89
:040A420000D787B39F
:040A4300F5DFF06F7C
:040A44000140061354
:040A450002D6706302
:040A4600054006134E
:040A470006D6646308
:040A480000C7D6937A
:040A490006F6859395
:040A4A0006E6861323
:040A4B00003595934A
:040A4C00ED5FF06FFB
:040A4D0005C68593C2
:040A4E0005B6861350
:040A4F000035959346
:040A5000EC5FF06FF8
:040A510000E52A236F
:040A520000E5282370
:040A53000017E6930F
:040A5400011726233D
:040A5500011724233E
:040A560000D7222380
:040A570000F707336A
:040A580000F7202360
:040A5900E4DFF06F77
:040A5A000045280328
:040A5B0040265613C8
:040A5C0000100793EC
:040A5D0000C797B384
:040A5E000107E7B3F2
:040A5F0000F5222359
:040A6000EB1FF06F29
:040A61001540061323
:040A620000D66C63EB
:040A630000F7D6932F
:040A640007868593E9
:040A65000776861377
:040A6600003595932F
:040A6700E69FF06FA7
:040A680055400613DC
:040A690000D66C63E4
:040A6A000127D693F7
:040A6B0007D6859392
:040A6C0007C6861320
:040A6D000035959328
:040A6E00E4DFF06F62
:040A6F003F8005932C
:040A700007E0061382
:040A7100E41FF06F1F
:040A72000017E693F0
:040A730000D7222363
:040A740000F6202345
:040A7500DDDFF06F62
:040A7600008627834C
:040A770030078A6357
:040A780000C596839C
:040A7900FD01011367
:040A7A0002812423AE
:040A7B0001412C23E6
:040A7C0001612823C9
:040A7D000211262319
:040A7E00029122239C
:040A7F00032120230C
:040A800001312E23EF
:040A810001512A23D2
:040A820001712623B5
:040A830001812423A6
:040A84000191222397
:040A85000086F7935D
:040A860000060B1348
:040A870000050A1349
:040A880000058413CE
:040A89000807866371
:040A8A000105A78338
:040A8B000807826373
:040A8C000026F793B6
:040A8D00000B2483B3
:040A8E0008078C6366
:040A8F000244278373
:040A900001C42583F5
:040A910080000AB720
:040A920000000993C4
:040A93000000091343
:040A9400C00ACA9337
:040A950000098613BB
:040A9600000A05133A
:040A970004090263E9
:040A980000090693B8
:040A9900012AF463D7
:040A9A00000A869335
:040A9B00000780E7E9
:040A9C0026A05663D7
:040A9D00008B278320
:040A9E0000A989B36F
:040A9F0040A909332E
:040AA00040A787B331
:040AA10000FB24230F
:040AA2002007866340
:040AA300024427835F
:040AA40001C42583E1
:040AA50000098613AB
:040AA600000A05132A
:040AA700FC0912E351
:040AA8000004A9831A
:040AA9000044A90359
:040AAA0000848493AD
:040AAB00FA9FF06F4F
:040AAC0000040593AA
:040AAD00000A051323
:040AAE00768010EF4F
:040AAF0022051663A3
:040AB00000C41683E5
:040AB100000B24838F
:040AB2000026F79390
:040AB300F60798E3C7
:040AB4000016F7939E
:040AB50012079C6325
:040AB600000427838E
:040AB700008427038D
:040AB80080000AB7F9
:040AB90000000B939B
:040ABA00000009939C
:040ABB00FFFACA93E1
:040ABC000007851397
:040ABD0000070C130F
:040ABE001009826336
:040ABF002006F61304
:040AC00024060C6399
:040AC10000070C938B
:040AC2002EE9E463D2
:040AC3004806F713D7
:040AC40008070A63B2
:040AC50001442603BF
:040AC600010425837F
:040AC70000161713EB
:040AC80000C7073329
:040AC90040B7893376
:040ACA0001F75C13C1
:040ACB0000EC0C33FC
:040ACC000019079373
:040ACD00401C5C135A
:040ACE00013787B3B2
:040ACF00000C0613FE
:040AD00000FC76634D
:040AD10000078C137B
:040AD2000007861380
:040AD3004006F69350
:040AD4002C068C63FD
:040AD500000605937F
:040AD600000A0513FA
:040AD7004A0000EFE2
:040AD80000050C9376
:040AD9003005006381
:040ADA00010425836B
:040ADB0000090613F5
:040ADC00E25FE0EF06
:040ADD0000C4578377
:040ADE00B7F7F793DC
:040ADF000807E7938A
:040AE00000F41623E5
:040AE100012C85332C
:040AE200412C07B3E9
:040AE300019428232F
:040AE40001842A233C
:040AE50000A4202326
:040AE60000098C1364
:040AE70000F42423D0
:040AE80000098C93E2
:040AE900000C861364
:040AEA00000B8593E5
:040AEB004A1000EFBE
:040AEC000084270358
:040AED000004278357
:040AEE00000989135F
:040AEF004187073301
:040AF000019787B330
:040AF10000E42423D6
:040AF20000F42023C9
:040AF3000000099363
:040AF400008B2783C9
:040AF500012B8BB393
:040AF600412787B35A
:040AF70000FB2423B9
:040AF8000A078A63FC
:040AF900000427834B
:040AFA00008427034A
:040AFB0000C416839A
:040AFC000007851357
:040AFD0000070C13CF
:040AFE00F00992E386
:040AFF000004AB83C1
:040B00000044A98381
:040B01000084849355
:040B0200EE9FF06F03
:040B030000000A9351
:040B040000000513D5
:040B050000000C13CD
:040B0600000009934F
:040B07000C098E63E4
:040B08000E0506636D
:040B0900000A8793C4
:040B0A0000098B93C0
:040B0B000137F46357
:040B0C0000078B93C0
:040B0D0000042503B8
:040B0E000104278334
:040B0F000084290332
:040B100001442683F3
:040B110000A7F663E0
:040B120000D90933CA
:040B13000F794063B3
:040B14001ADBC663BF
:040B150002442783EC
:040B160001C425836E
:040B1700000C0613B5
:040B1800000A0513B7
:040B1900000780E76A
:040B1A0000050913B6
:040B1B0006A0586375
:040B1C00412A8AB32D
:040B1D0000100513AC
:040B1E00040A8A63D8
:040B1F00008B27839D
:040B2000012C0C3365
:040B2100412989B32A
:040B2200412787B32D
:040B230000FB24238C
:040B2400F80796E355
:040B250000000513B4
:040B260002C1208365
:040B27000281240320
:040B280002412483DF
:040B29000201290399
:040B2A0001C1298359
:040B2B0001812A0317
:040B2C0001412A83D6
:040B2D0001012B0394
:040B2E0000C12B8354
:040B2F0000812C0312
:040B300000412C83D1
:040B310003010113A8
:040B320000008067D8
:040B33000004059322
:040B3400000A05139B
:040B350034D010EFB9
:040B3600FA0502E3D7
:040B370000C417835C
:040B38000407E79334
:040B390000F416238B
:040B3A00FFF00513B0
:040B3B00FADFF06F7E
:040B3C00000005139D
:040B3D0000008067CD
:040B3E000044A98343
:040B3F000004879394
:040B40000084849316
:040B4100FE098AE33C
:040B42000007AC03F9
:040B4300000986130C
:040B440000A0059375
:040B4500000C051388
:040B4600271000EF85
:040B470012050E6322
:040B4800001505137C
:040B490041850AB325
:040B4A00EFDFF06F7A
:040B4B00000C059302
:040B4C000009061383
:040B4D00319000EFF4
:040B4E0000042783F5
:040B4F000004059306
:040B5000000A05137F
:040B5100012787B33E
:040B520000F4202368
:040B53002D5010EF22
:040B5400F20500E3C3
:040B5500F89FF06FA6
:040B560001042683ED
:040B570004F6E2635B
:040B5800014426032B
:040B590002C9EE637C
:040B5A000009879374
:040B5B00013AF46304
:040B5C00000A879371
:040B5D0002C7E6B332
:040B5E000244270323
:040B5F0001C4258325
:040B6000000B8613ED
:040B6100000A05136E
:040B620040D786B33F
:040B6300000700E7A0
:040B6400000509136C
:040B6500F4A054E3C1
:040B6600412989B3E5
:040B6700E35FF06FE9
:040B68000007091366
:040B690000E9F46348
:040B6A0000098913E2
:040B6B0000078513E7
:040B6C000009061363
:040B6D00000B859361
:040B6E00295000EF1B
:040B6F0000842703D4
:040B700000042783D3
:040B710041270733DE
:040B7200012787B31D
:040B730000E4242353
:040B740000F4202346
:040B7500FC0712E384
:040B760000040593DF
:040B7700000A051358
:040B7800241010EF46
:040B7900EE051CE386
:040B7A00412989B3D1
:040B7B00DE5FF06FDA
:040B7C0000098C13CD
:040B7D0000098C934C
:040B7E00DADFF06F5B
:040B7F00000B8613CE
:040B8000000C0593CD
:040B8100249000EFCD
:040B820000842703C1
:040B830000042783C0
:040B8400000B8913C6
:040B8500417707337A
:040B8600017787B3B9
:040B870000E424233F
:040B880000F4202332
:040B8900E4DFF06F46
:040B8A00000A051345
:040B8B00485000EFDF
:040B8C0000050C93C1
:040B8D00D40518E390
:040B8E0001042583B6
:040B8F00000A051340
:040B9000895FF0EF9A
:040B910000C4178302
:040B920000C0071385
:040B930000EA202331
:040B9400F7F7F793E5
:040B9500E8DFF06F36
:040B96000019879328
:040B970000078A9336
:040B9800DC9FF06F7F
:040B990000C007137E
:040B9A0000C41783F9
:040B9B0000EA202329
:040B9C00E71FF06FF0
:040B9D00FE01011341
:040B9E0001212823E6
:040B9F0001312623D7
:040BA00001412423C8
:040BA10001512223B9
:040BA20001612023AA
:040BA30000112E23EC
:040BA40000812C237D
:040BA50000912A236E
:040BA60000058B13A8
:040BA7002E050A937A
:040BA80000000A132C
:040BA900001009939C
:040BAA00FFF009133C
:040BAB00004AA483D5
:040BAC00008AA40314
:040BAD00FFF484933A
:040BAE000204C66314
:040BAF0000C45783A4
:040BB000FFF4849337
:040BB10000F9FC63E8
:040BB20000E41783C1
:040BB3000004051322
:040BB400012786632C
:040BB500000B00E74A
:040BB60000AA6A33F4
:040BB7000684041399
:040BB800FD249EE397
:040BB900000AAA8301
:040BBA00FC0A92E3BC
:040BBB0001C12083D1
:040BBC00018124038C
:040BBD00014124834B
:040BBE000101290305
:040BBF0000C12983C5
:040BC00000412A8343
:040BC10000012B0301
:040BC200000A05130D
:040BC30000812A0380
:040BC4000201011316
:040BC5000000806745
:040BC600FD01011319
:040BC70003212023C3
:040BC80001312E23A6
:040BC90001412C2397
:040BCA0001512A2388
:040BCB000161282379
:040BCC00017126236A
:040BCD0002112623C8
:040BCE000281242359
:040BCF00029122234A
:040BD00000050A937F
:040BD10000058B93FD
:040BD2002E050B13CE
:040BD30000000A1301
:040BD4000010099371
:040BD500FFF0091311
:040BD600004B248329
:040BD700008B240368
:040BD800FFF484930F
:040BD9000204C863E7
:040BDA0000C4578379
:040BDB00FFF484930C
:040BDC0000F9FE63BB
:040BDD0000E4178396
:040BDE000004059377
:040BDF00000A851370
:040BE0000127866300
:040BE100000B80E79E
:040BE20000AA6A33C8
:040BE300068404136D
:040BE400FD249CE36D
:040BE500000B2B03D3
:040BE600FC0B10E311
:040BE70002C12083A4
:040BE800028124035F
:040BE900024124831E
:040BEA0002012903D8
:040BEB0001C1298398
:040BEC0001412A8316
:040BED0001012B03D4
:040BEE0000C12B8394
:040BEF00000A0513E0
:040BF00001812A0352
:040BF10003010113E8
:040BF2000000806718
:040BF3000000806717
:040BF4000000806716
:040BF5000000806715
:040BF6000000806714
:040BF7000000806713
:040BF8000000806712
:040BF90000100513D0
:040BFA000000806710
:040BFB0000100513CE
:040BFC00000080670E
:040BFD00000080670D
:040BFE00000080670C
:040BFF00FD010113E0
:040C00000321202389
:040C01000211262393
:040C02000281242324
:040C03000291222315
:040C040001312E2369
:040C050001412C235A
:040C060001512A234B
:040C0700016128233C
:040C0800017126232D
:040C0900018124231E
:040C0A00019122230F
:040C0B0000B5879316
:040C0C000160071369
:040C0D0000050913C2
:040C0E0008F76E6312
:040C0F000100079346
:040C100022B7E063C4
:040C1100201000EFC0
:040C12000100049346
:040C130001800793C2
:040C14000020059324
:040C15000003E99758
:040C160065C9899390
:040C170000F987B3A6
:040C18000047A403EA
:040C1900FF878713B7
:040C1A0030E40A6355
:040C1B0000442783E7
:040C1C0000C4268367
:040C1D000084260326
:040C1E00FFC7F79382
:040C1F0000F407B323
:040C20000047A703DF
:040C210000D62623B0
:040C220000C6A42341
:040C2300001767133C
:040C240000090513AB
:040C250000E7A2231F
:040C26001B5000EF70
:040C2700008405132D
:040C280002C1208362
:040C2900028124031D
:040C2A0002412483DC
:040C2B000201290396
:040C2C0001C1298356
:040C2D0001812A0314
:040C2E0001412A83D3
:040C2F0001012B0391
:040C300000C12B8351
:040C310000812C030F
:040C320000412C83CE
:040C330003010113A5
:040C340000008067D5
:040C3500FF87F493AE
:040C36001807C46374
:040C370018B4E263A8
:040C3800165000EF63
:040C39001F7007938E
:040C3A003A97F4638E
:040C3B000094D793B7
:040C3C0018078063B2
:040C3D000040071359
:040C3E002EF76A63C0
:040C3F000064D793E3
:040C400003978593FE
:040C4100038785138D
:040C42000035969350
:040C43000003E9972A
:040C44005A498993ED
:040C450000D986B399
:040C46000046A403BD
:040C4700FF8686930B
:040C48000286866337
:040C490000F006139E
:040C4A000100006F36
:040C4B0024075263C5
:040C4C0000C42403B9
:040C4D0000868C632E
:040C4E0000442783B4
:040C4F00FFC7F79351
:040C5000409787330F
:040C5100FEE654E384
:040C52000005059301
:040C53000109A403EC
:040C54000003E8971A
:040C550056888893A2
:040C56001F14046300
:040C570000442783AB
:040C580000F006930F
:040C5900FFC7F79347
:040C5A004097873305
:040C5B0032E6C86352
:040C5C000119AA23AD
:040C5D000119A823AE
:040C5E002E075C639E
:040C5F001FF0071368
:040C60000049A5039F
:040C610020F76463B1
:040C6200FF87F713FE
:040C630000870713EC
:040C640000E98733E9
:040C650000072683DB
:040C66000057D6134A
:040C670000100793DF
:040C680000C797B377
:040C690000F56533FA
:040C6A00FF87079366
:040C6B0000F4262348
:040C6C0000D4242369
:040C6D0000A9A22315
:040C6E0000872023B8
:040C6F000086A62332
:040C70004025D793B1
:040C71000010061356
:040C720000F616333F
:040C73000AC56A63E1
:040C740000A677B3AC
:040C7500020794637B
:040C7600001616133B
:040C7700FFC5F5932D
:040C780000A677B3A8
:040C7900004585931A
:040C7A0000079A6372
:040C7B000016161336
:040C7C0000A677B3A4
:040C7D000045859316
:040C7E00FE078AE300
