:020000020000FC
:2000000042C0006F000000000000000000000000000000000000000000000000000000006F
:20000800F70101130011202300512223006124230071262300A1282300B12A2300C12C2386
:2000100000D12E2302E1202302F12223030124230311262303C1282303D12A2303E12C2345
:2000180003F12E23040120270411222704212427043126270441282704512A2704612C27F5
:2000200004712E2707C1202707D1222707E1242707F1262706A1282706B12A2706C12C2736
:2000280006D12E2708E1202708F12227090124270911262734202573341025F33430267319
:20003000194000EF3415107300012083004122830081230300C123830101250301412583F0
:200038000181260301C1268302012703024127830281280302C1288303012E0303412E8332
:2000400003812F0303C12F8304012007044120870481210704C12187050122070541228724
:200048000581230705C1238706012E0706412E8706812F0706C12F870701250707412587DE
:200050000781260707C1268708012707084127870881280708C12887090101133020007327
:20005800FD01011302112623028124230301041300000013344027F3FEF42023304027F3D5
:20006000FEF42223FE042703FE44278300F777B30107D793FCF42A23FC042E230010079366
:20006800FCF42C23FD442703FD84278300F777B3060782630001D7B72CC78713FDC4278309
:200070000037979300F707B30007A7030001D7B72CC78693FDC427830037979300F687B316
:200078000047A78300078513000700E700000013344027F3FEF42423304027F3FEF42623CB
:20008000FE842703FEC4278300F777B30107D7930200006FFD84278300179793FCF42C2399
:20008800FDC4278300178793FCF42E23F79FF06FFCF42A23FD442783F60790E300000013DB
:200090000000001302C12083028124030301011300008067FD0101130211262302812423F6
:2000980003010413FCA42E23FCB42C23FCC42A23FDC42703800007B700F777B3FEF42423AD
:2000A000FDC42703800007B7FFF7C79300F777B3FEF42623FE84278308078863FEC4270359
:2000A8000030079304F70063FEC427030070079306F712630001D7B72647A78306078A6388
:2000B000000000130001D7B72647A783FD442603FD842583FDC42503000780E700000013FA
:2000B8000500006F0001D7B72607A78304078663000000130001D7B72607A783FD44260377
:2000C000FD842583FDC42503000780E7000000130280006FFEC4270300F0079302E7F263E8
:2000C800E41FF0EF01C0006F001000730180006F000000130100006F000000130080006F0E
:2000D00000000013FD8427830007851302C12083028124030301011300008067FE01011311
:2000D80000112E2300812C2302010413FE0426230200006FFEC42583000197B7AF078513F9
:2000E000601010EFFEC4278300178793FEF42623FEC42703000027B770F78793FCE7DCE3CC
:2000E800000000130000001301C12083018124030201011300008067FE01011300112E2351
:2000F00000812C2302010413F95FF0EF3E800513270000EF000197B7B2C78513721010EF02
:2000F800002127B7040787930007A783FEF42423FE842783FEF42623FEC42583000197B73A
:20010000B4C7851357D010EF000197B7B78785136ED010EF000007930007851301C12083A6
:2001080001812403020101130000806700000297BF42829330529073088002933002B0738A
:200110003040107334401073000012B70802A00FFE028293FE029CE30001C1979FC1819302
:20011800000A0117BA0101130001D317DF8303130001D397F0438393000320230043031320
:20012000FE736CE30C8000EF000193176283031300019397620383930073786300032023A4
:2001280000430313FE736CE300019297608282930001931760030313000193975F83839336
:200130000062FC630002A4830093A0230042829300438393FE62E8E3000192175D820213F6
:200138000D8000EF0000006FFE01011300812E2302010413FEA42623FEB42423FEC42223D2
:20014000FE842703FEC4278302F70A630240006FFEC4270300470793FEF42623FE8427833C
:2001480000478693FED424230007270300E7A023FE842703FE442783FCF71CE300000013A6
:2001500001C124030201011300008067FF01011300112623008124230101041383418613FC
:200158000001A7B7AB07859383418513F7DFF0EF35C006130200059302000513F6DFF0EFD7
:200160000001A7B7AB078613000197B7AF078593000197B7AF078513F51FF0EF691000EFC0
:200168000F0010EF0000001300C12083008124030101011300008067FE01011300112E23D8
:2001700000812C2302010413000005130A8000EF000000130D8000EF000197B7B84786137E
:20017800000197B7B8478593000197B7B847851336C010EF7DD000EF000017B7630785131A
:20018000155010EF0001D7B72687A7030001D7B726C7A6830001D7B72707A78300078613E9
:200188000006859300070513D91FF0EFFEA4262300100513719010EFFEC4250312D010EF65
:20019000FE01011300112E2300812C2302010413FEA42623FEC4250355D000EF0005079368
:200198000007851301C12083018124030201011300008067FE01011300112E2300812C2357
:2001A00002010413FEA426235B8010EF008007933007A073000000130000001301C1208371
:2001A800018124030201011300008067FE01011300112E2300812C23020104130000061318
:2001B000000005930001A7B7AD8785131F4000EF0001A7B7AB0785135C9000EF0000001387
:2001B8003E800793FEF426230001D7B72787A78300079A630001D7B7FEC4270326E7AC23D2
:2001C0000080006F00000013000027B7E6C78793FEF424230001D7B7FE84270326E7A22332
:2001C800000000137F4010EF000006130000059300000513738010EF0000001301C1208313
:2001D000018124030201011300008067FD010113021126230281242303010413FCA42E2324
:2001D800FCB42C23FCC42A23FDC427830007A783FEF42623FEC4278302878713FDC427832A
:2001E0000087A78300078693FD442603FD8425830007051364C000EF00050793000785132B
:2001E80002C12083028124030301011300008067FD01011302112623028124230301041395
:2001F000FCA42E23FCB42C23FCC42A23FDC427830007A783FEF42623FEC42783028787138C
:2001F800FDC427830087A78300078693FD442603FD84258300070513015000EF000507931A
:200200000007851302C12083028124030301011300008067FD0101130211262302812423F8
:2002080003010413FCA42E23FDC427830007A783FEF42623FEC4278302878713FDC42783F9
:200210000087A7830007859300070513428000EF000507930007851302C1208302812403E0
:200218000301011300008067FD010113021126230281242303010413FCA42E23FCB42C2384
:20022000FCC42A23FDC427830007A783FEF42623FEC4278302878793FD442603FD84258338
:200228000007851343C000EF000507930007851302C12083028124030301011300008067D8
:20023000FD010113021126230281242303010413FCA42E23FCB42C23FCC42A23FDC42783F3
:200238000010071302E7A023FDC427830207A783FEF42623FDC427830007A78300478793FA
:2002400000078713FEC4278300F72023FD842503FD44258300000713FDC42683000017B773
:200248009807861358D000EFFDC427830207A223FDC42783008787130001D7B72787A5831D
:20025000FDC42683000017B7BB878613000705130F9000EF000507930007DA63FDC4278380
:2002580080000737FFF7471300E7A2230000001302C12083028124030301011300008067AA
:20026000FA01011304812E2306010413FAA42623FAC42783FCF42223FC4427830007A783DC
:20026800FCF42423FA042C23FC842783004787930007A783FCF42623FCC42783FCF4282358
:20027000FD0427833007F7931C078E63FD0427831007F7930E078663000107B7FAF42E23A6
:20027800FC4427830287A783001787937FF7F793FCF42A23FC44278302C7A783FD44270313
:2002800006F70263FC8427830007A783FCF42C23FD842783FAF42E23FBC42703000087B7D1
:2002880000F777B304078463FC4427830287A783FBC427030FF77713FC44268300F687B314
:2002900002E78C23FC4427830287A783001787937FF7F713FC44278302E7A42300000013BB
:20029800F81FF06F000000130080006F00000013FBC42703000107B704F76463FC44278367
:2002A0000207A783FFE7F713FC44278302E7A023FC4427830207A783FCF42E23FC842783FD
:2002A8000047879300078713FDC4278300F72023FC842783004787930007A783FEF420239E
:2002B000FD0427832007F793EE0780E3FD0427830107D793FCF4202305C0006FFC4427830C
:2002B8000347A783FC44270300F707B30000173700F707B38387C783FEF42223FC842783E3
:2002C000FE44270300E7A023FC4427830347A783001787937FF7F713FC44278302E7AA2359
:2002C80000100793FAF42C23FC042783FFF78793FCF42023FC04278300078C63FC442783B8
:2002D0000347A703FC4427830307A783F8F718E3FC042783E4078AE3FC4427830207A783F3
:2002D800FFD7F713FC44278302E7A023FC4427830207A783FEF42423FC4427830007A7831F
:2002E0000047879300078713FE84278300F72023FC842783004787930007A783FEF426239F
:2002E800E09FF06F000000130000001305C124030601011300008067FD0101130281262325
:2002F00003010413FCA42E23FDC42783FEF42023FE0427830007A783004787930007A783D3
:2002F800FEF42223FE442783FEF42423FE8427834007F79302078C63FE0427830207A783B6
:200300004007E793FEF42623FE0427830007A7830047879300078713FEC4278300F720235C
:20030800FE0427830207A2230340006FFE0427830247A703800007B7FFC7C79302E7E06380
:20031000FE0427830247A78300178713FE04278302E7A223FE0427830247A7830001D7B7F5
:200318002787A7830007851302C124030301011300008067FE01011300812E230201041366
:20032000FEA42623FEB4242301C0006FFE842703000047B700F777B300078663FF50079305
:200328000300006FFEC427830347A703FEC427830307A78300F70C63FEC427830247A7037E
:20033000FEC427830047A783FCF762E3000007930007851301C12403020101130000806778
:20033800FD0101130281262303010413FCA42E23FCB42C23FCC42A23FE700793FEF424236E
:20034000FD842703000077B7A017879300F70C63FD842703000077B7A027879306F7026371
:200348000AC0006FFDC427830047A703800007B7FFF7C79308F70663FD4427830007A783EE
:20035000FEF42623FEC427030010079300E7DE63FEC42703800007B7FFF7C79300F70663BA
:20035800FEC4278300C0006F800007B7FFE7C793FDC4270300F72223FE0424230440006F49
:20036000FDC427830047A703800007B7FFF7C79302F70C63FDC427830247A703FDC4278362
:200368000047A78300F737B30FF7F79300078713FD44278300E7A023FE04242300C0006FE5
:20037000000000130080006F00000013FE8427830007851302C124030301011300008067A4
:20037800FC01011302112E2302812C2304010413FCA42623FCB42423FCC42223FCD420230A
:20038000FC842783FCF428231280006FFCC427830287A783FCF42C23FCC4278302C7A7833E
:20038800FCF42E23FD842703FDC4278300F76C63FD842703FDC4278340F707B3FCF42A23F4
:200390000180006F000017B780078713FDC4278340F707B3FCF42A23FD44278306078E63EC
:20039800FC442783FD44270300E7F663FC442783FCF42A23FCC4278303878713FDC4278390
:2003A00000F707B3FD44260300078593FD04250310C010EFFD042703FD44278300F707B344
:2003A800FCF42823FC442703FD44278340F707B3FCF42223FDC42703FD44278300F707B3F8
:2003B0007FF7F713FCC4278302E7A623FC442783F2F04EE30080006F00000013FD04270367
:2003B800FC84278304F71C63FC042703000047B700F777B30407986300000013FCC42783B5
:2003C0000287A783FD84270300F71C63FCC427830247A703FCC427830047A783FEF760E3D9
:2003C800FCC427830287A783FD84270302F70063FC442783ECF04CE30180006F00000013F9
:2003D0000100006F000000130080006F00000013FD042703FC84278306F7046300800793B5
:2003D8003007B7F3FEF42623FEC42783FEF42023FCC427830207A7830017E713FCC4278330
:2003E00002E7A023FCC427830207A783FEF42223FCC427830007A7830047879300078713E0
:2003E800FE44278300F72023FE042783FEF42423FE8427830087F7933007A0730000001350
:2003F000FD042703FC84278300F70A63FD042703FC84278340F707B30200006FFC04270353
:2003F800000047B700F777B300078663FF5007930080006FFFB007930007851303C12083AF
:20040000038124030401011300008067FC01011302112E2302812C2304010413FCA42623E5
:20040800FCB42423FCC42223FCD42023FC042823FC842783FCF42C230EC0006FFCC427836A
:200410000307A783FCF42E23FCC427830347A783FCF42823FDC42703FD04278300F77E63D0
:20041800FD042703FDC4278340F707B3FFF78793FCF42A230340006FFD04278300078E639B
:20042000000017B780078713FDC4278340F707B3FCF42A230140006F7FF00713FDC4278390
:2004280040F707B3FCF42A23FD44278308078263FC442783FD44270300E7F663FC44278328
:20043000FCF42A23FCC42703000017B78387879300F70733FDC4278300F707B3FD442603DC
:20043800FC842583000785136B5000EFFC842703FD44278300F707B3FCF42423FC4427034C
:20044000FD44278340F707B3FCF42223FDC42703FD44278300F707B37FF7F713FCC427831A
:2004480002E7A823FC442783F0F04AE30080006F00000013008007933007B7F3FEF42623B1
:20045000FEC42783FEF42023FCC427830207A7830027E713FCC4278302E7A023FCC42783AD
:200458000207A783FEF42223FCC427830007A7830047879300078713FE44278300F7202357
:20046000FE042783FEF42423FE8427830087F7933007A07300000013FC44278304F0546368
:20046800FC042703000047B700F777B30407926300000013FCC427830347A783FD0427030F
:2004700000F71C63FCC427830247A703FCC427830047A783FEF760E3FCC427830247A783A9
:2004780000079C63FC442783F2F04EE30100006F000000130080006F00000013FC84270332
:20048000FD84278300F70A63FC842703FD84278340F707B30200006FFC042703000047B76E
:2004880000F777B300078663FF5007930080006FFFB007930007851303C120830381240371
:200490000401011300008067FC01011302812E2304010413FCA42623FCB42423FCC4222366
:20049800FCD420230000071300000793FEE42423FEF426230001D7B72787A78312078263B4
:2004A000FCC4278310078A63FCC42783FC44270300E7A823FCC42783FC04270300E7AA2300
:2004A800008007933007B7F3FEF42223FE442783FCF42A230001D7B72807A7032847A783D8
:2004B000FEE42423FEF42623FC8427830007881300000893FE842603FEC4268300C8073349
:2004B800000705930105B5B300D887B300F586B3000687930007061300078693001005134F
:2004C0000000059300A607330007081300C8383300B687B300F806B300068793FCC4268325
:2004C80000E6A42300F6A623FCC427830001B73766C70713FCE42E23FEF42023FE042783F6
:2004D000FDC4270300E7A223FDC427830007A703FE04278300E7A023FDC427830007A78367
:2004D800FE04270300E7A223FDC42783FE04270300E7A02300000013FD442783FCF42C23AE
:2004E000FD8427830087F7933007A07300000013000007930100006FFEA007930080006F32
:2004E800F7A007930007851303C124030401011300008067FD010113021126230281242301
:2004F00003010413FCA42E2309D000EFFDC427030320079302F707B3FEF42423FE04262339
:2004F800000000130C1000EF0005071300058793FEC4268300078613FED666E3FEC42683F5
:200500000007861300C69863FE84268300070793FCD7EAE3000007930007851302C120836F
:20050800028124030301011300008067FE01011300812E2302010413FE0426230180006FF0
:20051000FEC427830817A00FFEC4278302078793FEF42623FEC42703000017B7FEF762E3D3
:20051800000000130000001301C124030201011300008067FE01011300812E2302010413B7
:20052000FEA42623FEB42423FEC42223FE4427830007851301C1240302010113000080675E
:20052800FE01011300112E2300812C2302010413FEA426230001B7B765C78593FEC42503CC
:20053000068000EF000507930007851301C12083018124030201011300008067FF010113D8
:200538000011262300812423010104130001B7B76687A78300078C630001B7B76687A78366
:20054000000780E70005079300C0006F0001D7B7290787930007851300C1208300812403DB
:200548000101011300008067FD010113021126230281242303010413FCA42E23FCB42C2353
:20055000FDC4278300078863FDC427830087A78300079E63F89FF0EF00050713016007937A
:2005580000F72023FEA007930540006FFDC42783FD842703FEE42423FEF42623FEC4278377
:20056000FE84270300E7A223FE8427830007A703FEC4278300E7A023FE8427830007A783D3
:20056800FEC4270300E7A223FE842783FEC4270300E7A023000000130000079300078513CD
:2005700002C12083028124030301011300008067FE01011300112E2300812C2302010413FD
:20057800000197B7AE478793FEF4262301C0006FFEC427830007A783000780E7FEC4278323
:20058000FFC78793FEF42623FEC42703000197B7AE078793FCF77EE30000001300000013BC
:2005880001C12083018124030201011300008067FE01011300112E2300812C2302010413E8
:20059000000197B7AE478793FEF4262301C0006FFEC427830007A783000780E7FEC427830B
:20059800FFC78793FEF42623FEC42703000197B7AE878793FCF77EE3000000130000001324
:2005A00001C12083018124030201011300008067FF01011300812623010104130000100F19
:2005A8000000001300C124030101011300008067FD010113021126230281242303010413E8
:2005B000FEA42623FEB42423FEC42223FED42023FCE42E23FDC42703FE042683FE442603F9
:2005B800FE842583FEC4250301C000EF000507930007851302C120830281240303010113F9
:2005C00000008067FA01011304812E2306010413FAA42E23FAB42C23FAC42A23FAD4282321
:2005C800FAE42623FEA00793FCF42223FB842783FCF42423FC84270300F0079312E7C863C7
:2005D000008007933007B7F3FCF42823FD042783FCF426230001D7B72CC78713FC842783AB
:2005D8000037979300F707B3FB44270300E7A0230001D7B72CC78713FC8427830037979337
:2005E00000F707B3FB04270300E7A223FB44278306078263FC842783FBC42703FCE42A235A
:2005E800FCF42C23FD84270300F0079300E7E863FD842783010787930080006FFFF0079388
:2005F000FCF42E23FDC427830007D663FDC427830800006FFDC42783FCF42C23FD84278348
:2005F8000010071300F717B33047A073000007930600006FFC842783FBC42703FEE4202327
:20060000FEF42223FE44270300F0079300E7E863FE442783010787930080006FFFF00793F5
:20060800FEF42423FE8427830007D663FE8427830200006FFE842783FEF42223FE44278341
:200610000010071300F717B33047B07300000793FCF42223FCC42783FEF42623FEC4278365
:200618000087F7933007A07300000013FC4427830007851305C124030601011300008067DC
:20062000FD010113021126230281242303010413FCA42E23FCB42C23FCC42A23FCD428234F
:20062800FD042603FD442583FD8425034B1000EFFEA42623FEC427830807C8630001B7B7AC
:20063000B3878693FEC42703000707930017979300E787B30027979300F687B30007A70336
:20063800FDC4278300E7A0230001B7B7B3878693FEC42703000707930017979300E787B3DC
:200640000027979300F687B30047A703FDC4278300E7A2230001B7B7B3878693FEC4270363
:20064800000707930017979300E787B30027979300F687B30087A703FDC4278300E7A423C4
:20065000FEC42503090000EF0000001302C12083028124030301011300008067FE01011373
:2006580000112E2300812C2302010413FEA42623FEB42423FEC422231FF00693001006137A
:20066000FEC425830001B7B7B4478513EF5FF0EF1FF0069300000613FE8425830001B7B787
:20066800B3878513EDDFF0EF1FF0069300100613FE4425830001B7B7B5078513EC5FF0EF4D
:200670000000001301C12083018124030201011300008067FE01011300812E23020104134C
:20067800FEA42623FEC427030020079304E7D6630001B7B7B3878693FEC42703000707935E
:200680000017979300E787B30027979300F687B30007A4230001B7B7B3878693FEC42703FB
:20068800000707930017979300E787B30027979300F687B30007A0230000001301C1240308
:200690000201011300008067FD0101130281262303010413FCA42E23008007933007B7F367
:20069800FEF42623FEC42783FEF42023FDC42783FEF42423FE8427830007A783FE842703B9
:2006A0000047270300E7A223FE8427830047A783FE8427030007270300E7A023FE842783CD
:2006A800FE84270300E7A223FE842783FE84270300E7A02300000013FE042783FEF4222362
:2006B000FE4427830087F7933007A073000000130000001302C124030301011300008067D4
:2006B800FE01011300112E2300812C2301212A2301312823020104130001B7B766C7879321
:2006C0000007A783FEF422230001D7B72807A7032847A783001005130000059300A7063311
:2006C8000006081300E8383300B786B300D807B30007869300060713000687930001D6B72E
:2006D00028E6A02328F6A2230C80006FFE4427830007A783FEF42423FE4427830087A603E9
:2006D80000C7A6830001D7B72807A7032847A783000685130007859308A5E86300068513BE
:2006E0000007859300B51863000606930007079306D7EC63FE4427830107A783FE442703B5
:2006E8000147270300070513000780E7FEA42623FEC4278300079863FE442503E8DFF0EF8A
:2006F0000480006FFE4427830087A70300C7A783FEC42683000689130000099301270633DF
:2006F8000006059300E5B5B3013786B300D587B3000786930006071300068793FE4426832C
:2007000000E6A42300F6A623FE842783FEF42223FE4427030001B7B766C78793F2F718E304
:20070800000000130000001301C12083018124030141290301012983020101130000806783
:20071000FF0101130081262301010413FFF007933047B0730000001300C12403010101139E
:2007180000008067FF0101130011262300812423010104130AC000EF000507130005879394
:200720000001D6B728E6A42328F6A623000007930007851300C12083008124030101011314
:2007280000008067FF01011300112623008124230101041306C000EF00050613000586938A
:200730000001D7B72887A50328C7A58340A60733000708130106383340B687B3410786B347
:2007380000068793000705130007859300C12083008124030101011300008067FF01011326
:20074000008126230101041302FAF7B7080787930007851300C1240301010113000080675F
:20074800FE01011300812E23020104130011033700C3031300032303FE6424230011033751
:200750000083031300032303FE6426230011033700C3031300032303FE842E03FC6E18E3B7
:20075800FE84230300030813000008930008179300000713FEC428030008061300000693AD
:2007600000C7653300D7E5B30005071300058793000705130007859301C12403020101132F
:2007680000008067FE01011300812E2302010413FEA42423FEB42623001106B7004686937A
:20077000FFF0061300C6A023001106B7FE84260300C6A023FEC426830006D71300000793E1
:20077800001106B7004686930007079300F6A0230000001301C124030201011300008067E0
:20078000FE01011300812E23020104130011033700032303FE642423001103370043031399
:2007880000032303FE642623FEC4230300030813000008930008179300000713FE84280363
:20079000000806130000069300C7653300D7E5B30005071300058793000705130007859345
:2007980001C124030201011300008067FC01011302112E2302812C2304010413FCA426230E
:2007A000FCB42423FCC42223E99FF0EFFEA42423FEB42623FE842703FEC427830000C537DE
:2007A800350505130000059300A706330006081300E8383300B786B300D807B30007869351
:2007B00000060713000687930007051300078593ED5FF0EF008007933007B7F3FEF422234E
:2007B800FE442783FCF42E23BF9FF0EFFDC42783FEF42023FE0427830087F7933007A07310
:2007C000000000130000001303C12083038124030401011300008067FF0101130011262373
:2007C8000081242301010413FFF00513FFF00593E75FF0EF080007933047A073000000133E
:2007D0000000001300C120830081240301010113000080670005059300000693000006139E
:2007D800000005133100306FFF010113000005930081242300112623000504133E0030EFD2
:2007E00000018517B105250303C5278300078463000780E700040513421150EF00B547B353
:2007E8000037F79300C508B3060794630030079306C7F063003577930005071306079A635A
:2007F000FFC8F61340E606B30200079308D7CE63000586930007079302C778630006A8037A
:2007F8000047879300468693FF07AE23FEC7E8E3FFF6079340E787B3FFC7F7930047879319
:2008000000F7073300F585B3011768630000806700050713051578630005C783001707131C
:2008080000158593FEF70FA3FEE898E3000080670005C6830017071300377793FED70FA36D
:2008100000158593F6078EE30005C6830017071300377793FED70FA300158593FC079AE339
:20081800F61FF06F00008067FF01011300812623020004130005A3830045A2830085AF8322
:2008200000C5AF030105AE830145AE030185A30301C5A8030205A6830247071340E607B303
:20082800FC772E23FE572023FFF72223FFE72423FFD72623FFC72823FE672A23FF072C23B5
:20083000FED72E2302458593FAF446E3000586930007079302C778630006A8030047879397
:2008380000468693FF07AE23FEC7E8E3FFF6079340E787B3FFC7F7930047879300F7073308
:2008400000F585B30117686300C1240301010113000080670005C7830017071300158593F6
:20084800FEF70FA3FEE882E30005C7830017071300158593FEF70FA3FCE89EE3FCDFF06FAB
:20085000FC01011302C1242302D1262302E1282302F12A2303012C2303112E23000586138D
:20085800008525830281069300112E2300D12623438000EF01C120830401011300008067A4
:20086000FC01011302C1242302D12623000193174E83230302B1222302E1282302F12A2339
:2008680003012C2303112E230083258302410693000506130003051300112E2300D12623FC
:200870003E8000EF01C120830401011300008067FD010113028124230005041300058513C1
:200878000291222302112623000584932D4000EF00150713000176979C46869300E1262352
:20088000038427830101071300D12C2300E1222300100693002007130091282300A12A2318
:2008880000D12E2300E124230084248308078A630644A70300C497830017771300071663EC
:200890002007F7130A07046301279713020742630644A703000026B700D7E7B3FFFFE6B742
:20089800FFF6869300D7773300F4962306E4A2230004051300410613000485937CD030EF58
:2008A0000644A783001534134080043300B474130017F793FFF404130007986300C4D7836B
:2008A8002007F7930207846302C1208300040513028124030241248303010113000080677A
:2008B00000040513748030EFF69FF06F0584A503264070EF02C120830004051302812403E3
:2008B8000241248303010113000080670584A50322C070EF00C49783F51FF06F00050593D7
:2008C0000001951737452503EC9FF06FFE010113012128230005A90300812C2300912A23FE
:2008C80000112E230131262301412423000584130005049304090263000929830209886355
:2008D0000009AA03000A0E63000A258300058463FBDFF0EF000A0593000485133E5030EF95
:2008D80000098593000485133D9030EF00090593000485133CD030EF0004059301812403AA
:2008E00001C120830101290300C1298300812A030004851301412483020101133A50306F85
:2008E800000197972D47A78310A78A6304C52583FE01011300912A2300112E2300812C23EB
:2008F000012128230131262300050493040580630000091308000993012587B30007A403AA
:2008F80000040E63000405930004240300048513351030EFFE0418E304C4A5830049091352
:20090000FD391CE300048513339030EF0404A5830005866300048513329030EF1484A4034A
:200908000204006314C4891301240C63000405930004240300048513309030EFFE8918E39A
:200910000544A58300058663000485132F5030EF0384A7830407866303C4A78300048513FC
:20091800000780E72E04A40302040C63000425830005866300048513E95FF0EF000405930A
:200920000181240301C120830101290300C129830004851301412483020101132A50306F59
:2009280001C1208301812403014124830101290300C1298302010113000080670000806738
:20093000003577930005071304079C637F7F86B7F7F68693FFF005930007260300470713E6
:2009380000D677B300D787B300C7E7B300D7E7B3FEB784E3FFC7468340A707B3040684637F
:20094000FFD7468302068C63FFE7450300A0353300F50533FFE5051300008067FA0688E350
:20094800000747830017071300377693FE0798E340A70733FFF7051300008067FFD7851349
:2009500000008067FFC78513000080670005059300019517124525037590206FFC010113ED
:2009580002C1242302D1262302F12A23000606930281079300058613000505930001951775
:200960000F85250300112E2302E1282303012C2303112E2300F12623689080EF01C120836D
:200968000401011300008067E10101131E1126231D312E231D512A231BB12E230005899369
:2009700000060D9300D126231E8124231E9122231F2120231D412C231D6128231D712623FD
:200978001D8124231D9122231DA1202300050A93701060EF000527830007851302F12C2385
:20098000EC1FF0EF02A12A230E0128230E012A230E012C230E012E23000A8663038AA703DF
:20098800740704630649A68300C997030016F6930006986320077693000694632CC0106F5A
:20099000012716930206C6630649A6830000263700C76733FFFFE63701071713FFF60613B4
:200998004107571300C6F6B300E9962306D9A223008776932E0686630109A6832E068263DF
:2009A00001A7769300A006132EC68E63000DC70310C10B930F7122230E0126230E0124232F
:2009A8000001282300012A2302012E2302012823040120230401222300012023000B8893F7
:2009B0000100091322070863000D84130250069334D702630014470300140413FE071AE3EC
:2009B80041B404B321B408630EC126830E81270301B8A023009686B3001707130098A22329
:2009C0000ED126230EE12423007006930088889330E6CA630001278300044703009787B300
:2009C80000F120231C07086300144E030C0103A300140413FFF0031300000A130000049351
:2009D00005A00B1300140413000E0C13FE0C071304EB6A63000167974AC787930027171391
:2009D80000F707330007270300F707330007006700000A13FD0C07130090061300044C03C2
:2009E000002A1693014686B30016969300D70A33FD0C071300140413FEE672E3FE0C0713A6
:2009E800FAEB7AE3140C0863158106230C0103A300100B1300100C9314C10D930001242316
:2009F000000003130201222302012623020124230024FE93000E8463002B0B130844F813A9
:2009F80000081663416A0F334DE042E30C71470302070C630EC126830E8127030C71061319
:200A00000016869300C8A023001707130010061300C8A2230ED126230EE1242300700693CE
:200A08000088889330E6CC63020E8C630EC126830E8127030C81079300268693001707131F
:200A10000020061300F8A02300C8A2230ED126230EE12423007006930088889354E6C2E35C
:200A18000800071326E808E341930333346042E31004F71304071CE30EC127030E81278386
:200A200001B8A02300EC8733001787930198A2230EE126230EF12423007006933EF6C46323
:200A2800008888930044F49300048663416A04B33E904A63016A5463000B0A130001278381
:200A3000014787B300F120233A0714E3008127830E0124230007886300812583000A85137A
:200A3800660030EF000B889300040D93000DC703DC071CE30EC12783000784632750106F39
:200A40000E0124230649A70300C9978300177713440700630407F7930007846329C0206F1A
:200A48001EC120831E812403000125031E4124831E0129031DC129831D812A031D412A836C
:200A50001D012B031CC12B831C812C031C412C831C012D031BC12D831F01011300008067E3
:200A580000098593000A85137C8020EF000504632280206F00C9970300A0061301A7769346
:200A6000D0C696E300E99683D006C2E30649A6830016F693000698632007771300071463A3
:200A68002310106F00C12683000D861300098593000A8513684020EF00A12023F65FF06F9A
:200A7000000A85130111242300612223325060EF004527830007851304F12223AE5FF0EF40
:200A780000050713000A851300070C1304E12023301060EF008527830041230300812883FE
:200A800002F12823000C04630080106F00044E03D35FF06F41B404B3CDB418E3000447034A
:200A8800D05FF06F0E41061300098593000A85136B10B0EFEC0518E3000B8893CD9FF06F9E
:200A90000084F713000704637ED0006F00C127830B0105130111242300778713FF87771384
:200A98000007258300472603008707930061222300F126235EC140EF0B0125830B412603A7
:200AA0000B8126830BC1270300812883004123030F01051301112423006122230EE12E2311
:200AA8000EB128230EC12A230ED12C231C5060EF0CA126230020071300412303008128835C
:200AB00000E5146349C0106F0010071300E5146365C0106F0610071300EC14630500106F01
:200AB800041007130580079300EC14630440106FFFF0071300E314632D00206FFDFC771309
:200AC0000470069300D714632B00206F0FC12C831004E79306F1242304912E230F012D0390
:200AC8000F412E830F812F03000CD4630650106F06012E23000124230480106F0E41061328
:200AD00000098593000A851300612E2301012C2301D1222358D0B0EF120516E301C123036A
:200AD8000181280300412E83000B8893CBDFF06F010127830010069300888C133EF6D2E3CB
:200AE0000EC127030E812C830010069300170713001C8C9300D8A22301B8A0230EE1262359
:200AE8000F912423007006930196D4631840106F0341278303812683001C8C9300E7873362
:200AF00000DC202300FC22230EE126230F91242300700693008C0C130196D4631780106FCF
:200AF8000F0126830A0105930B0105130AD128230F41268300E122230A0120230AD12A23A3
:200B00000F8126830A0122230A0124230AD12C230FC126830A0126230AD12E2320D100EFF7
:200B08000101278300412703FFF78693380504E3001D8793001C8C9300D7073300FC2023C1
:200B100000DC22230EE126230F91242300700793008C0C133397CEE303C126830D41079300
:200B1800001C8C9300E6873300FC202300DC22230EE126230F91242300700793008C089332
:200B2000C397D2E30E41061300098593000A85134510B0EF7E0518630EC12703000B88936A
:200B2800C05FF06F010006930E81278300016D17158D0D1301000C9300700C130096C86325
:200B30000540006FFF048493049CD663010707130017879301A8A0230198A2230EE12623A9
:200B38000EF1242300888893FCFC5EE30E41061300098593000A85133E90B0EF78051463EF
:200B4000FF0484930EC127030E812783000B8893FA9CCEE3009707330017879301A8A0236E
:200B48000098A2230EE126230EF1242300700693B8F6D2E30E41061300098593000A85131B
:200B50003A10B0EF740510630EC12703B69FF06F2007F713BC0710E30589A5037D8060EF9A
:200B580000C99783BB1FF06F000A85134A1020EF8B5FF06F00044E030204E4939C9FF06FA1
:200B60000104E4930204F7932A0786E300C1278300778793FF87F7930047A7030007AB031D
:200B68000087879300F1262300070C932A074EE3FFF00793000486930CF30A63019B67B3C2
:200B7000F7F4F6930C0794630C03186300000C93000684931B010D930D40006F00C127033E
:200B78000C0103A300100B13000727830047071300E1262314F1062300100C9314C10D93EE
:200B80009BDFF06F00C127830C0103A30007AD8300478D134E0D8CE3FFF0071300E3146313
:200B88002540106F0003061300000593000D85130111262300612223108070EF00A1242338
:200B90000041230300C12883000514634F10106F008127830C71470301A1262341B78CB304
:200B9800FFFCCB1341FB5B1300012423020122230201262302012423016CFB3300000313E3
:200BA000940708E3001B0B13949FF06F6E0C9EE3009007936F67EAE3030B0B131B6107A3CA
:200BA8000006849300100C931AF10D930C71470300030B1301935463000C8B130001242391
:200BB000020122230201262302012423FA071CE3901FF06F0104E4930204F7931A0786E3A3
:200BB80000C1278300778793FF87F7930007AB030047AC830087879300F12623BFF4F693CF
:200BC00000000793000007130CE103A3FFF007132EE30E63019B6733F7F6F4932E071663EB
:200BC80034031C631C0794E30016FC931B010D93F60C8EE3030007931AF107A31AF10D93EC
:200BD000F6DFF06F00C127830007AA03004787131C0A54E341400A3300E1262300044E0337
:200BD8000044E493FE0FF06F0204F79326078CE300C12783000126830007A78341F6D71343
:200BE00000D7A02300E7A22300C1278300040D930047879300F12623955FF06F00044E035D
:200BE8000804E493FA0FF06F00044C0302A007130014069300EC14637ED0106FFD0C0713F3
:200BF00000900593000684130000031300900613F6E5EE6300044C0300231693006686B377
:200BF8000016969300E68333FD0C071300140413FEE672E3F58FF06F0104E6930206F79388
:200C00000A078CE300C1278300778793FF87F7930007AB030047AC830087879300F1262342
:200C080000100793EE1FF06F00C12703FFFF87B78307C7930CF114230047079300F126235C
:200C100000016797B8C7879300F12A2300072B0300000C930024E6930020079307800C131D
:200C1800EA5FF06F00044E030084E493ED8FF06F00044E0306C0071326EE0AE30104E49337
:200C2000EC4FF06F00044E030680071326EE08E30404E493EB0FF06F00044E030014E4936E
:200C2800EA4FF06F0C71470300044E03E8071C63020007130CE103A3E8CFF06F02B00713F9
:200C300000044E030CE103A3E7CFF06F06500713AB8750E30F0127030A0105930B010513D1
:200C38000AE128230F412703011122230A0120230AE12A230F8127030A0122230A012423B3
:200C40000AE12C230FC127030A0126230AE12E23518100EF004128834A051A630EC127035E
:200C48000E81278300016697AD86869300D8A02300170713001006930017879300D8A223C6
:200C50000EE126230EF1242300700693008888935EF6C0E30CC127830101268378D7DE63B1
:200C5800038127830341268300888893FEF8AC230E81278300E68733FED8AE230017879348
:200C60000EE126230EF124230070069314F6C0E301012783FFF78C93F190566301000693AB
:200C68000E81278300016D17C70D0D1301000D9300700C130196C8635990006FFF0C8C9346
:200C7000599DD8E3010707130017879301A8A02301B8A2230EE126230EF124230088889355
:200C7800FCFC5EE30E41061300098593000A85136F00B0EF280518630EC127030E81278310
:200C8000000B8893FB9FF06F0004869300100713C6E78EE30020071306E78C631B010D93FE
:200C880001DC9613007B7713003B5B130307071301666B33003CDC93FEED8FA3019B6633F2
:200C9000000D8593FFFD8D93FC061CE30016F61306060A630300061306C70663FFE585931C
:200C98001B010793FECD8FA340B78CB30006849300058D93C39FF06F0010071300E7946348
:200CA0001850106F0020071300048693F8E798E31B010D930141278300FB7713004B5B13B6
:200CA80000E787330007460301CC971301676B33004CDC93FECD8FA3019B6733FFFD8D93B4
:200CB000FC071AE31B01079341B78CB300068493BDDFF06F416A06B3D8D0586301000593BF
:200CB8000EC126030E81270300016D17B2CD0D130100081300700E9300D5C86306C0006FE5
:200CC000FF06869306D85263010606130017071301A8A0230108A2230EC126230EE124238A
:200CC80000888893FCEEDEE30E41061300098593000A851300D12C23006122235A40B0EF94
:200CD0001405126301812683010008130EC12603FF0686930E81270300412303000B8893D3
:200CD80000700E93FAD842E300C686330017071300D8A22301A8A0230EC126230EE12423ED
:200CE0000070069300888893CEE6D0630E41061300098593000A8513006122235440B0EF5D
:200CE8000E05126300412303000B8893CBCFF06F0EC126830E81270300016D17A5CD0D1396
:200CF00000700813006948630680006FFF03031306695063010686930017071300016797C6
:200CF800A387879300F8A0230128A2230ED126230EE1242300888893FCE85AE30E41061365
:200D000000098593000A8513006122234D40B0EF06051A63004123030EC126830E8127031E
:200D0800FF030313000B889300700813FA6944E300D306B30017071301A8A0230068A22322
:200D10000ED126230EE124230070069300888893C2E6D0630E41061300098593000A8513B3
:200D18004800B0EF02051063000B8893C04FF06F0E41061300098593000A85134640B0EF76
:200D2000C405066300812783C6078E6300078593000A85132AD020EF0649A70300C99783F2
:200D280000177713C60718638A9FF06F010006130EC126830E81270300016D1794CD0D13E9
:200D300001000F930070029301E6486307C0006FFF0F0F1307EFDA6301068693001707137F
:200D380001A8A02301F8A2230ED126230EE1242300888893FCE2DEE30E4106130009859348
:200D4000000A851303E1202300612E2301012C2301D122233CC0B0EFF60516E302012F03EC
:200D480001000F930EC12683FF0F0F130E81270301C123030181280300412E83000B8893DA
:200D500000700293F9EFCAE300DF06B30017071301A8A02301E8A2230ED126230EE12423A8
:200D58000070069300888893A8E6D2630E41061300098593000A851300612E2301012C23DE
:200D600001D1222335C0B0EFEE051EE301C123030181280300412E83000B8893A50FF06F14
:200D68000E41061300098593000A851300612C230101222332C0B0EFEC0516E30181230326
:200D700000412803000B8893A98FF06F0CC1260334C05A630101278300FD873300E12C2300
:200D78000281270300078D1300F7546300070D130EC1270303A058630E81268301A70733C1
:200D800001B8A0230016869301A8A2230EE126230ED12423007006130088889300D6546323
:200D880049C0106F02812783FFFD469341F6D69300DD76B340D78C331D8046E30281278352
:200D90004004F69300FD8DB30006846321C0106F0CC126830101278300F6C6630014F6138E
:200D980036060AE303812603034127830070059300C8A0230E81260300E7873300F8A223CE
:200DA000001606130EE126230EC124230088889300C5D4634800106F0101278340D786B354
:200DA8000181278341B78CB30196D46300068C93039058630E8127830197073301B8A02300
:200DB000001787930198A2230EE126230EF12423007006130088889300F6546348C0106FB6
:200DB800FFFCC79341F7D79300FCFCB341968CB39B905A63010006930E81278300015D1733
:200DC000718D0D1301000D9300700C130196C8630410006FFF0C8C93039DDCE301070713D5
:200DC8000017879301A8A02301B8A2230EE126230EF1242300888893FCFC5EE30E4106132E
:200DD00000098593000A85131980B0EFD2051CE30EC127030E812783000B8893FB9FF06FE1
:200DD8000014F713C0071E630EC127030E812C8301B8A02300170713001C8C9300D8A223D9
:200DE0000EE126230F91242300700793CD97D6630E41061300098593000A85131440B0EF0F
:200DE800CE0512E30EC127030E812C83000B8C13CA8FF06F0101260300100793C8C7DE63E5
:200DF0000110079300015D17650D0D1314C7D8E30100079300700D9300C0006FFF068693A3
:200DF80012D7DEE301070713001C8C9301AC202300FC22230EE126230F912423008C0C13D9
:200E0000FD9DDEE30E41061300098593000A851300D122230CC0B0EFC60516E30EC127030E
:200E08000E812C8300412683000B8C1301000793FADFF06F00C127030104F79300072B0376
:200E10000047071300E12623180790630404F79316078863010B1B13410B5B1341FB5C936C
:200E1800000C8713D4075663016037B341900CB340FC8CB341600B330004869302D0071342
:200E200000100793E84FF06F00C127030104F79300072B030047071300E12623140790632A
:200E28000404F79312078863010B1B13010B5B1300000C93E48FF06F00C127030106F79373
:200E300000072B030047071300E126230E0794630406F7930C078A63010B1B13010B5B138E
:200E380000000C9300100793E1CFF06F00000C931B010D93DB8FF06F0014F7930007946382
:200E4000FA5FE06F85DFF06F0589A503411050EF00C99703D2DFE06F00044E0300E126237F
:200E4800E25FE06F0EC127030E812683000155972D05859300B8A02300170713001005933E
:200E50000016869300B8A2230EE126230ED12423007005930088889304D5C0E37606106362
:200E5800010127830014F69300F6E6B300069463F35FE06F03812683034127830070061360
:200E600000D8A0230E81268300E7873300F8A223001686930EE126230ED1242320D646E395
:200E68000088889374C0006F2006F793000784630FFB7B1300000C9300100793D48FF06FE3
:200E70002004F79302079AE341FB5C93000C8713BDCFF06F2004F79300079AE300000C93A1
:200E7800D1CFF06F0104F793600794630404F793020794E32004F4935E048C6300C12783F5
:200E8000000127030007A78300E78023D7CFF06F0301278300044E0300079463D29FE06FA6
:200E88000007C70300071463D1DFE06F4004E493D15FE06F00C127830007A7030047879345
:200E900000F1262300072583004726030087268300C7270383CFF06F00048693DA0FF06FB2
:200E9800000157971807879300F12A230204F7932807886300C1278300778793FF87F7931E
:200EA0000007AB030047AC830087879300F126230014F79300078E63019B67B300078A63EC
:200EA800030007930CF104230D8104A30024E493BFF4F69300200793C4CFF06F00015797C2
:200EB0001107879300F12A23FA5FF06F0E41061300098593000A85136090A0EF9A0514E3BA
:200EB8000EC12703000B8893EA8FF06F00144E030204E49300140413C4DFE06F00144E03BF
:200EC0002004E49300140413C3DFE06F0060079300030C936A67E463000C8B1301A1262312
:200EC80000015D970D4D8D93C95FE06F07800793030007130CF104A30024E7930CE1042390
:200ED00004F12E23063007130001242314C10D93086746E30FC12C831024E79306F12423AC
:200ED80006012E230F012D030F412E830F812F03020CC2E30610071300EC14632540106F75
:200EE000FBFC07130250069302E6E063000156971E0686930027171300D70733000727030D
:200EE80000D707330007006700030693002006130B0104930CC107130DC108130D0107937B
:200EF00000048593000A85130311202300612E2300D12C230BD12A2301D128230BE12C237A
:200EF80001E122230BA128230B912E23528040EF0670071300412F0301012E8301812683ED
:200F000001C123030201288300050D9362EC00630470071360EC0C630A010793FDFC781373
:200F08000460071300F1222300D5063300E81C6300054583030007137CE588630CC1270373
:200F100000E60633004125830004851302C1202301012E2301112C23006128230BA12823C0
:200F18000BD12A230BE12C230B912E230A0120230A0122230A0124230A0126231AD0F0EF5B
:200F200002012603010123030181288301C1280300060713020502630DC1270300C77E6317
:200F280003000593001706930CD12E2300B700230DC12703FEC768E341B707B300F1282360
:200F30000CC126830470071302D1242356E80E63046007136EE808E3FFF687130CE1262350
:200F38000610061300CC14632B00106F041005930500061356BC1863001005935700006FB8
:200F400000C127030104F79300072B030047071300E12623060796630404F79304078E63C3
:200F4800010B1B13010B5B1300000C93D65FF06F0E41061300098593000A85133A50A0EF5E
:200F5000F40512630EC127030E812C83000B8C13E61FE06F0E41061300098593000A8513B3
:200F58003810A0EFF20510630EC127030E812C83000B8C13E6DFE06F2004F793480798634B
:200F600000000C93D0DFF06FCCCCD7B7CCD78D134006FE93000128231B0105930050081319
:200F6800CCC787930FF00F930540006F0164B73300E487330307773340EB073300EB35B38E
:200F700040BC85B303A585B302F7063303A7353300C5863303A7073300A6063301F6159329
:200F7800001656130017571300E5E5B34C0C82E300058B1300060C93000D8593019B04B35F
:200F80000164B73300E487330307773301012603FFF58D9300160E1301C1282340EB0733C8
:200F880000EB363340CC863303A7353303A6063303A7073300A6063301F6161300175513DA
:200F900000A665330025171300A707330017171340EB073303070713FEE58FA3F40E88E387
:200F98000301270300074703F4EE12E3F5FE00E3000C966300900713C567766304012783AA
:200FA0000441258301D12E2340FD8DB300078613000D851301112C230061242300D1222340
:200FA800749070EF0164B7330050061300E4873302C7773303012783CCCCD5B7CCD58613F1
:200FB000CCC585130017C583004126830081230300B035B300B787B302F12823CCCCD7B71B
:200FB8000181288301C12E830001282300500813CCC787930FF00F9340EB073300EB35B33C
:200FC00040BC85B302C585B302A7053302C732B300A585B302C707330055863301F61593C2
:200FC800001656130017571300E5E5B3EC5FF06F0E41061300098593000A85131A50A0EFBE
:200FD000D40512630EC12703000B8893A08FF06F019707330017879301A8A023931FE06F96
:200FD8000F0127830A0105930B0105130AF128230F412783011122230A0120230AF12A234B
:200FE0000F8127830A0122230A0124230AF12C230FC127830A0126230AF12E2311D0F0EFF1
:200FE80000412883220540630C7147030470069300015D97C0CD8D930186D66300015D9708
:200FF000C04D8D9300012423020122230201262302012423F7F4F49300300B1300300C93FF
:200FF8000000031300070463E9DFE06FFE4FE06F00C12783000127030007A78300E7A02331
:20100000F89FE06F010005930E81260300015D17E08D0D130100081300700C930185C863BB
:201008001340006FFF0C0C1313885663010707130016061301A8A0230108A2230EE12623C5
:201010000EC1242300888893FCCCDEE30E41061300098593000A85130890A0EFC2051463EE
:201018000EC127030E812603000B889301000813FB5FF06F000D851301112223C44FE0EF2E
:201020000C714703FFF54B1341FB5B1301A1262300012423020122230201262302012423DC
:201028000041288300050C9301657B330000031300070463DD1FE06FF18FE06F0381268339
:20103000034127830070059300D8A0230E81268300E7873300F8A223001686930EE1262312
:201038000ED12423008888932CD5C06334064AE3010127830016869301B8A02300E787334C
:2010400000F8A2230EE126230ED124230070079300D7C463F8CFE06FB6DFE06F00D7073362
:20104800001C8C9301AC2023B19FE06F0FC127832207C8630C7147030470069300015D9727
:20105000A88D8D93E986D0E300015D97A80D8D93E75FF06F00EC07330016061301A8A023D9
:201058000188A2230EE126230EC124230070069300888893CCC6D4630E41061300098593DE
:20106000000A851375C0A0EFAE051E630EC12703000B8893CA8FF06F0E4106130009859376
:20106800000A851373C0A0EFAC051E630CC126030EC12703000B8893FA4FF06F00600C9316
:20107000959FF06F02D007930CF103A302D00713DDDFF06F40D786B30181278341B78CB304
:20107800D196D06300068C93CF8FF06F0FFB7B1300000C93D09FE06F018B1B13418B5B13F3
:2010800041FB5C93000C8713BA5FE06F0FFB7B1300000C9387DFF06F00C127830001270385
:201088000007A78300E79023D61FE06F05C127830017F7132C0716E30DC127030CC126830E
:2010900041B707B300F12823FFD0071302D1242300E6C46300D356E3FFF68713FFEC0C139D
:201098000CE126230FFC7613000005930CC10A2302B00613000758630010071340D70733D4
:2010A00002D006130CC10AA3009006932EE6D6E30E3103130003059300A0051306300E9356
:2010A80002A766B30005861300070813FFF5859303068693FED60FA302A74733FF0EC2E31D
:2010B00003070713FFE60693FEE58FA35266FCE30D6107130006C58300168693001707139C
:2010B800FEB70FA3FE6698E30E5107130D61079340C7073300E787330D41069340D707B3B7
:2010C00002F12E230101278303C126830010071300D78CB328F75AE30341278300FC8CB3EE
:2010C80005C12783FFFCCB1341FB5B13BFF7F4931004E493016CFB3302012223020126231E
:2010D0000201242307C127835007866302D007130CE103A300000313001B0B13C74FE06FD1
:2010D80002D007930CF103A302D00713DCDFF06F0E41061300098593000A85135640A0EF93
:2010E00000050463D80FE06F0E012423D78FE06F000124238000073702D0079301974CB33A
:2010E80006F12E23FD0FF06F0E41061300098593000A851352C0A0EF8C0516630CC1260369
:2010F0000EC127030E812683000B8893D21FF06F0589A503160050EFDCCFE06F0013059309
:2010F800000A851301112423006122233B4050EF004123030081288300050D9340050AE313
:2011000000A12423F50FF06F004125830004851302C12623030122230311202300612E23A1
:201108000BD12A2301D12C230BE12C2301E1282302D124230BA128230B912E230A012023C9
:201110000A0122230A0124230A0126231DC0F0EF01012F0301812E8301C123030201288310
:201118000241280302C12603FC050A63028126830010071340D707330CE12623FC4FF06F68
:201120000013069300200613F28FF06F0003069300300613F1CFF06F0B01049300048513A7
:2011280003112623026124230BD12A230BE12C230BA128230B912E23651120EF0CC10613ED
:2011300051C070EF000586130005059300048513391120EF0B012F0300015717958707131C
:2011380000072E8309E128230B412F03004728030087268309E12A230B812F0300C72703A4
:201140000901079309E12C230BC12F030A010B130801061300078593000B051300F12823EB
:2011480006C1202309E12E2309D120230901222308D1242308E12623016122234D80F0EF31
:201150000A0126830A4128030A812E830AC12F03000B0593000485130AD1282302D122239F
:201158000B012A23030120230BD12C2301D12E230BE12E2301E12C230A0120230A0122237D
:201160000A0124230A0126230A00F0EF01812F0301C12E83020128030241268302812303F6
:2011680002C12883020510630010071300014797620787930CE1262304F12C230610071349
:2011700000EC08630001479761C7879304F12C23000157178707071300072783FFF30C934A
:20117800000D8B1306F126230047278306F128230087278306F12A2300C7278306F12C230D
:201180000840006F004125830004851304C12A2305F1282304512623047124230A712823A0
:20118800027122230A512A23025120230BF12C2301F12E230AC12E2300C12C230A01202349
:201190000A0122230A0124230A0126237DD0E0EF01812F0301C12E830201280302412683EC
:201198000281230302C12883FFFC85930006839300080293000E8F93000F061310050A637A
:2011A00000058C9306C12783004125830101260308F1282307012783000485130311262397
:2011A80008F12A2307412783026124230BE1262308F12C23078127830AD120230B01222327
:2011B00008F12E230BD1242334C0F0EF0B012E830B4128030B8126030BC1268300048513E5
:2011B80003D122230301202300C12E2300D12C2363C120EF0005059300050D1300048513F4
:2011C0007CC120EF0181268301C1260302412E8308D12E230B0126830201280308C12C2394
:2011C80008D120230B412683060126030101258308D122230B8126830041250309D128233B
:2011D00008D124230BC1268309012A2308D126237AC100EF058127830A0123830A412283F6
:2011D80001A786B30006C6830A812F830AC126030761222300DB0023FFF0079302812303B9
:2011E00002C12883001B0B13E6FC9EE3FFF00C93000145976C0585930005AE830045A803CB
:2011E8000085A68300C5AF03004125830004851301112C23006128230A71282304712823AA
:2011F0000A512A23045126230BF12C2305F124230AC12E2302C126230BD1202303D12423AF
:2011F8000B012223030122230AD1242302D120230BE1262301E12E2375D0E0EF0101230361
:201200000181288350A0486300412583000485136190E0EF010123030181288300051663EE
:20120800001D7D134E0D1863001C869300DB06B303000613520CC663001B0B13FECB0FA323
:20121000FF669CE341B687B300F12823FDFC7813C70FF06F0C714703000003130007046369
:20121800E24FE06FF6DFD06F02C127830070031301000C9300014C175A0C0C130A078663AC
:20122000024127831807886302412783FFF7879302F1222304412683040127830088889342
:20122800FED8AC230E81268300F70733FEF8AE23001686930EE126230ED1242312D34863B4
:20123000030127830007C6830181278341B78D3301A6D46300068D1303A058630E812683A2
:2012380001A7073301B8A0230016869301A8A2230EE126230ED1242312D34C6303012783FB
:20124000008888930007C683FFFD461341F6561300CD7D3341A68EB303D0466300DD8DB368
:2012480002C12783F4079EE302412783F4079EE30181278301B7E463D19FE06F00078D9323
:20125000D11FE06F0E81268300014D174CCD0D1307DCD663000C0D1300C0006FFF0E8E93C4
:2012580005DCDE6301070713001686930188A0230198A2230EE126230ED124230088889358
:20126000FCD35EE30E41061300098593000A851301D1222374D090EF00050463AE9FE06F51
:2012680000412E830EC127030E812683FF0E8E93000B889300700313FBDCC6E300EE873341
:201270000016869301A8A02301D8A2230EE126230ED1242310D346630301278300888893EA
:201278000007C68300DD8DB3F39FF06F0E41061300098593000A85136E9090EF00050463E4
:20128000A85FE06F0EC12703000B889300700313EB1FF06F03012783FFF7879302F12823EE
:2012880002C12783FFF7879302F12623E69FF06F0E41061300098593000A85136A5090EF45
:2012900000050463A41FE06F030127830EC12703000B88930007C68300700313EADFF06FF5
:20129800010127831AF6C46305C1278300068C930017F713000706630341278300F68CB30A
:2012A00005C127834007F7130007046346D04263FFFCCB130681248341FB5B13016CFB33F8
:2012A80006700C130201222302012623899FF06F00900713B3676E6380DFE06F0E410613CB
:2012B00000098593000A8513619090EF000504639B5FE06F0EC12703000B8893B49FE06F75
:2012B8000E41061300098593000A85135F5090EF00050463991FE06F030127830EC12703A3
:2012C000000B88930007C6830070031300DD8DB3E11FF06F0E41061300098593000A85136B
:2012C8005C1090EF0005046395DFE06F0CC126830EC12703000B8893B61FE06F0C7147036C
:2012D00001A1262302012223020126230201242300030B1300030C930000031300070463EE
:2012D800B24FE06FC6DFD06F0E41061300098593000A851356D090EF00050463909FE06F08
:2012E0000CC12683010127830EC12703000B889340D786B3B4DFE06F0649A7830017F79361
:2012E80000079C6300C9D7832007F793000796630589A503181040EFFFF0079300F12023C2
:2012F000D61FD06F05C127830017F71302812783006767333EF05A633A07166302812C8314
:2012F80006600C1305C127834007F71330071463FFFCCB1341FB5B1306812483016CFB3396
:20130000EA5FF06F00048693A90FE06F010127830341270306700C1300E78CB302812783FF
:20130800FCF042E340FC8CB3001C8C93FFFCCB1341FB5B1306812483016CFB33E69FF06FCE
:20131000FF00059340C00CB300014D171CCD0D130100081300700C1300B648630580006FF9
:20131800FF0C8C9305985863010707130016869301A8A0230108A2230EE126230ED124234A
:2013200000888893FCDC5EE30E41061300098593000A851344D090EF00050463FE8FE06FEB
:201328000EC127030E812683000B889301000813FB1FF06F019707330016869301A8A0234C
:201330000198A2230EE126230ED124230070061300D64463CCDFE06F0E4106130009859358
:20133800000A85133FD090EF00050463F98FE06F0EC127030E812683000B8893BF4FF06F5E
:201340000A01079300DD86330470081300F12223F35FE06F06412783000B06930CF12E2309
:2013480005812783FFFB460300F7C58302C5906303000513FEA68FA30DC12683FFF6861323
:201350000CC12E23FFF6C603FEC586E300160593039005130FF5F59300A60863FEB68FA399
:20135800000B0693AE1FF06F0581278300A7C583FEB68FA3FEDFF06F0D610693000598635D
:20136000030006930CD10B230D7106931B01079340F68633030707130DD6079300E68023E0
:2013680002F12E23D60FF06F05C127830017F713D6070863D64FF06F00030463D51FD06FE3
:2013700000100313D49FD06F00600313D41FD06F0B01049300048513031126230261242397
:201378000BD12A230BE12C230BA128230B912E23518120EF0CC106133E5060EF00058613CB
:201380000005059300048513258120EF0B012F03000147170207071300072E8309E12823B2
:201388000B412F03004728030087268309E12A230B812F0300C727030901079309E12C2362
:201390000BC12F030A010B130801061300078593000B051300F1282306C1202309E12E2331
:2013980009D120230901222308D1242308E12623016122233A10E0EF0A0126830A4128038D
:2013A0000A812E830AC12F03000B0593000485130AD1282302D122230B012A2303012023D7
:2013A8000BD12C2301D12E230BE12E2301E12C230A0120230A0122230A0124230A01262325
:2013B0007680E0EF01812F0301C12E8302012803024126830281230302C12883EC050663A6
:2013B80000014797CEC7879304F12C23EE4FF06F06700C13030127830FF006930201222384
:2013C0000007C7030201262304D708630281278304F7546340E787B302F124230301278382
:2013C8000017C70300070E6302C126030017879302F128230016061302C12623FCDFF06FDC
:2013D000030127830007C703024127830017879302F12223FB5FF06F02C127830241270395
:2013D8000681248300E787330401278302F7073301970CB3FFFCCB1341FB5B13016CFB33CF
:2013E000BC4FF06F0341270306600C1300E78CB3006C8CB3C51FF06F0700061300100593B4
:2013E800ACCFF06F00C127830007A3030047871300035463FFF0031300144E0300E12623C4
:2013F00000068413F80FD06F00071C630681248300100B1306600C1300100C93AC9FF06F3A
:2013F800034127830681248306600C1300178C93006C8CB3FFFCCB1341FB5B13016CFB3335
:20140000AA5FF06F0020079302F12E23AF8FF06F00C9D7830407E79300F996238E9FD06F03
:201408000006069300058613000505930001651764852503D74FD06F00C5978300E5D70359
:20141000B7010113FFD7F793010797930645A88301C5A80348812423010717130005841399
:201418000107D7930245A58300E7E7B349212023400007130005091300F12A2306010513CD
:2014200007010793481126234891222347312E230006049300068993071126230301222318
:2014280002B1262300F1242300F12C2300E1282300E12E2302012023454040EF000486133B
:20143000000986930081059300090513CDCFD0EF0005049304055263014157830407F793DA
:201438000007886300C457830407E79300F4162306012503420040EF48C120834881240316
:201440004801290347C1298300048513484124834901011300008067008105930009051318
:20144800634000EFFA050AE3FFF00493FADFF06FFF0101130081242300912223001126233C
:20145000000167975347A7830005049300058413000786630387A7030807006300C417838D
:201458000087F71308070463010427030A0700630017F693020688630144268300042423FE
:201460000000051340D006B300D42C2302070A6300C12083008124030041248301010113E8
:20146800000080670027F69300000613000694630144260300C4242300000513FC071AE326
:201470000807F713FC0706E30407E79300F41623FFF00513FBDFF06F00078513031000EFC4
:2014780000C417830087F713F80710E30107F71306070A630047F71302071C6301042703DF
:201480000087E79300F41623F60714E32807F69320000613F4C68EE30004059300048513D6
:20148800318040EF00C4178301042703F45FF06F0304258300058E630404071300E588638E
:20149000000485134FD000EF00C417830204282301042703FDB7F7930004222300E4202306
:20149800FA1FF06F0090071300E4A0230407E793F5DFF06FFE0101130121282382418913D4
:2014A00000812C23000504130009250300912A23013126230141242300112E2300058493AF
:2014A80000060A1300068993274040EF000147177E47270314872783080786630047A703CD
:2014B00001F005930009250308E5C4630027159302041E630017071300E7A22300B787B32A
:2014B8000097A423250040EF0000051301C1208301812403014124830101290300C12983B8
:2014C00000812A03020101130000806700B78833094824231887A6830010061300E6163336
:2014C80000C6E6B318D7A4231138242300200693FAD412E318C7A68300C6E6B318D7A623C4
:2014D000F95FF06F14C7079314F72423F71FF06F1E4040EFFFF00513F95FF06FFD010113AC
:2014D8000171262382418B930161282300050B13000BA5030321202301312E2301412C235A
:2014E00001512A23018124230211262302812423029122230191222300058C13180040EFC4
:2014E80000014A176F0A2A03148A290300100A93FFF009930209086300492483FFF48413EA
:2014F0000204426300249493009904B3040C08631044A78305878463FFF40413FFC4849346
:2014F800FF3416E302812403000BA50302C12083024124830201290301C1298301812A03AF
:2015000001412A8301012B0300C12B8300812C0300412C830301011311C0406F0049278312
:201508000044A683FFF7879304878E630004A223FA0684E318892783008A973300492C8303
:2015100000F777B302079263000680E700492703148A278301971463F92780E3F80784E37C
:2015180000078913F55FF06F18C927830844A58300F7773300071C63000B0513000680E7A7
:20152000FCDFF06F00892223FA9FF06F00058513000680E7FB9FF06F00000793000788631C
:201528000000151790850513AADFC06F00008067FF01011300812423000504130005851316
:2015300000018797DC07A8230011262360C120EFFFF0079300F50A6300C12083008124034D
:20153800010101130000806700018797DA87A783FE0784E300C1208300F42023008124033D
:20154000010101130000806700C59783FE01011300812C230131262300112E2300912A2311
:20154800012128230087F71300058413000509931207126300001737800707130045A6835D
:2015500000E7E73300E5962318D05863028428030E08026300C7D7930009A4830017F7930B
:201558000009A02301C4258318079063000006130010069300098513000800E7FFF007934D
:20156000000506131AF5006300C417030284280301C425830047771300070E630044270328
:201568000304278340E606330007866303C4278340F606330000069300098513000800E75A
:20157000FFF0079312F516630009A68301D007930CD7EE63DFC00737FFE7071340D7573303
:201578000017771300C417830C07146301042603FFFFF7377FF7071300E7F73300C7D7939E
:2015800000E416230004222300C420230017F79312079C63030425830099A02300058C6326
:201588000404079300F5866300098513115000EF020428230000051301C12083018124035B
:20159000014124830101290300C1298302010113000080670105A903FC090EE30005A483E5
:201598000037F7930125A023412484B300000713000794630145A70300E42423009048637F
:2015A000FB5FF06F00A90933FA9056E30244278301C425830004869300090613000985138D
:2015A800000780E740A484B3FCA04EE300C417830407E79301C1208300F4162301812403AF
:2015B000014124830101290300C12983FFF00513020101130000806703C5A683E6D048E3C0
:2015B80000000513F55FF06F05042603EA9FF06F00C4178301042683FFFFF7377FF7071366
:2015C00000E7F73300C7D79300E416230004222300D420230017F793EE078EE304A4282352
:2015C800EF5FF06F0009A783E60780E301D0071300E7866301600713F6E79AE30099A023E7
:2015D00000000513EF5FF06FEC0696E304A42823EC5FF06FFF01011300812423009122237C
:2015D8000011262301212023000504930005841300050663038527830607846300C417830A
:2015E00000000913040780630644270300177713000716632007F793040788630004059309
:2015E80000048513D65FF0EF06442783000509130017F7930007986300C457832007F7932C
:2015F0000407886300C12083008124030041248300090513000129030101011300008067A6
:2015F80022C000EFF99FF06F05842503531030EF0004059300048513D11FF0EF06442783DD
:20160000000509130017F793FA079EE3FADFF06F05842503521030EF00C120830081240310
:2016080000412483000905130001290301010113000080670A050C63FF0101130081242335
:2016100001212023001126230091222300016917E289290300050413000906630389278349
:201618000607846300C4178300000493040780630644270300177713000716632007F79395
:2016200004078A630004059300090513C7DFF0EF06442783000504930017F793000798633D
:2016280000C457832007F79302078C6300C12083008124030001290300048513004124839E
:20163000010101130000806700090513140000EFF95FF06F05842503445030EFFA9FF06F66
:2016380005842503451030EFFC5FF06F00000597E68585930001451719C5250368D0006F8A
:201640000000A597658585936810006F064527830017F7930007986300C557832007F7937D
:2016480000078663000005130000806705852503FF010113001126233E5030EF00C1208362
:20165000000005130101011300008067064527830017F7930007986300C557832007F7937D
:2016580000078663000005130000806705852503FF010113001126233BD030EF00C12083D5
:20166000000005130101011300008067FF0101130091222306800793FFF5849302F484B313
:2016680001212023000589130081242300112623074485935ED030EF000504130205006304
:2016700000C50513000420230124222300A424230684861300000593748040EF00C120839F
:201678000004051300812403004124830001290301010113000080670000A59756058593CD
:2016800000014517090525035810006FFE01011300912A23000504930001851789C5051350
:2016880000112E2300812C23012128230131262301412423015122232E5030EF0384A783BA
:20169000140798630044A40300000717EB87071302E4AE232EC48793003007132EE4A223AB
:201698002EF4A4232E04A0230040079300F42623008006130000059300042023000422237C
:2016A00000042423060422230004282300042A2300042C2305C40513688040EF00006A97A4
:2016A800130A8A9300006A1718CA0A130000699720C989930000691727C909130584051336
:2016B00000842E2303542023034422230334242303242623239030EF0084A403000107B775
:2016B8000087879300F42623008006130000059300042023000422230004242306042223D9
:2016C0000004282300042A2300042C2305C40513610040EF0584051300842E230354202396
:2016C8000344222303342423032426231E1030EF00C4A403000207B70127879300F4262391
:2016D0000080061300000593000420230004222300042423060422230004282300042A23FF
:2016D80000042C2305C405135B8040EF0584051300842E230354202303442223033424239A
:2016E00003242623189030EF0010079302F4AC230181240301C1208301412483010129031F
:2016E80000C1298300812A0300412A8300017517708505130201011317D0306FFE0101138F
:2016F0000131262300050993000175176E8505130121282300112E2300812C2300912A23A9
:2016F80013D030EF00014917EAC92903038927830C0780632E090913FFF004930049278398
:2017000000892403FFF787930007D8630940006F068404130897866300C41703FFF78793F8
:20170800FE0718E3FFFF07B70017879300F4262305840513060422230D5030EF000175179E
:20171000674505130F1030EF008006130004202300042423000422230004282300042A23A3
:2017180000042C230000059305C405134B4040EF0204282302042A230404222304042423EB
:2017200001C120830004051301812403014124830101290300C129830201011300008067FD
:201728000009240300040C6300040913F51FF06F00090513D59FF0EFF3DFF06F1AC0059354
:20173000000985132DD030EF000504130205086300C50513004007930004202300F4222317
:2017380000A424231A00061300000593434040EF0089202300040913F05FF06F0009202343
:20174000000175175B05051302D030EF00C0079300F9A023F6DFF06F0001751759850513C6
:201748007FC0306F0001751758C505130090306F00017517584505137E40306F0001751786
:20175000578505137F00306FFF0101130001751756450513001126237C4030EF00C120837A
:20175800000165179145250300000597BA458593010101131710006FFF01011300000597E7
:20176000BD058593000165178F05250300112623155000EF00C120830001751751850513C9
:20176800010101137900306FFF0101130081242300013797D387879300013417D3040413DA
:2017700040F4043300912223001126234024549302048063FFC4041300F4043300042783D7
:20177800FFF48493FFC40413000780E7FE0498E300C1208300812403004124830101011378
:2017800000008067FE01011300812C2300912A23012128230131262301412423000589930F
:2017880000112E2300015A172BCA0A13000509133CC040EF008A2703000017B7FEF7841301
:2017900000472483FFC4F493008484334134043300C45413FFF4041300C4141300F44E6355
:201798000000059300090513425050EF008A2783009787B302F508630009051338C040EFF8
:2017A00001C1208301812403014124830101290300C1298300812A030000051302010113BA
:2017A80000008067408005B3000905133E1050EFFFF0079304F50A630001771749470713EC
:2017B00000072783008A2683408484B30014E493408787B3000905130096A22300F72023F8
:2017B800328040EF01C1208301812403014124830101290300C1298300812A0300100513C8
:2017C0000201011300008067000005930009051337D050EF008A270300F0069340E507B3F0
:2017C800F4F6DCE38281A68340D505330017E7930001769740A6AE2300F72223F3DFF06F1C
:2017D00018058263FF01011300812423009122230005841300050493001126232A0040EF5A
:2017D800FFC42583FF8407130001551717850513FFE5F79300F7063300462683008528038B
:2017E000FFC6F6931AC8026300D622230015F59300D608330A059063FF84230300482583F0
:2017E80000015897148888934067073300872803006787B30015F5931518026300C72303EA
:2017F00000682623010324231A0588630017E69300D7222300F620231FF0069306F6EC63FB
:2017F800FF87F693008686930045258300D506B30006A6030057D81300100793010797B3BB
:2018000000B7E7B3FF86859300B7262300C7242300F5222300E6A02300E626230081240312
:2018080000C120830004851300412483010101131D80406F004825830015F59308058663F3
:201810000017E693FED42E2300F620231FF00693F8F6F8E30097D6930040061312D6626355
:201818000067D69303968593038686130035959300B505B30005A683FF85859300D59863A9
:201820001580006F0086A68300D588630046A603FFC67613FEC7E8E300C6A58300B726237A
:2018280000D724230081240300C1208300E5A423000485130041248300E6A6230101011381
:201830001480406F0000806700D787B30001589701C88893008626830D168E6300C6280355
:201838000017E59300F706330106A62300D8242300B7222300F62023EE1FF06F12059E6329
:201840000086258300C6260300F686B30016E79300C5A62300B6242300F7222300D70733D4
:2018480000D72023EF9FF06F0015F59300D786B302059063FF84258340B7073300C7278305
:201850000087260300B686B300F6262300C7A4230016E79300F7222300E5242382C1A783A7
:20185800EAF6EEE30001759715C5A58300048513C95FF0EFEA9FF06F00D787B3F59FF06F21
:201860000140061302D670630540061306D6646300C7D69306F6859306E68613003595933C
:20186800ED1FF06F05C6859305B6861300359593EC1FF06F00E52A2300E528230017E69305
:20187000011726230117242300D7222300F7073300F72023E49FF06F0045280340265613F0
:201878000010079300C797B30107E7B300F52223EADFF06F1540061300D66C6300F7D6931E
:20188000078685930776861300359593E65FF06F5540061300D66C630127D69307D68593B3
:2018880007C6861300359593E49FF06F3F80059307E00613E3DFF06F0017E69300D7222377
:2018900000F62023DD9FF06F0086278330078A6300C59683FD0101130281242301412C2385
:201898000161282302112623029122230321202301312E2301512A23017126230181242342
:2018A000019122230086F79300060B1300050A1300058413080786630105A7830807826343
:2018A8000026F793000B248308078C630244278301C4258380000AB700000993000009136A
:2018B000C00ACA9300098613000A05130409026300090693012AF463000A8693000780E706
:2018B80026A05663008B278300A989B340A9093340A787B300FB24232007866302442783EF
:2018C00001C4258300098613000A0513FC0912E30004A9830044A90300848493FA9FF06F2A
:2018C80000040593000A0513E09FE0EF2205166300C41683000B24830026F793F60798E31D
:2018D0000016F79312079C63000427830084270380000AB700000B9300000993FFFACA9313
:2018D8000007851300070C13100982632006F61324060C6300070C932EE9E4634806F71309
:2018E00008070A6301442603010425830016171300C7073340B7893301F75C1300EC0C33CB
:2018E80000190793401C5C13013787B3000C061300FC766300078C13000786134006F693E1
:2018F0002C068C6300060593000A05133D4030EF00050C9330050063010425830009061350
:2018F800BBDFB0EF00C45783B7F7F7930807E79300F41623012C8533412C07B3019428231F
:2019000001842A2300A4202300098C1300F4242300098C93000C8613000B85933E9030EF4E
:2019080000842703000427830009891341870733019787B300E4242300F4202300000993EC
:20191000008B2783012B8BB3412787B300FB24230A078A63000427830084270300C416837D
:201918000007851300070C13F00992E30004AB830044A98300848493EE9FF06F00000A93B6
:201920000000051300000C13000009930C098E630E050663000A879300098B930137F46378
:2019280000078B930004250301042783008429030144268300A7F66300D909330F794063C1
:201930001ADBC6630244278301C42583000C0613000A0513000780E70005091306A05863E5
:20193800412A8AB300100513040A8A63008B2783012C0C33412989B3412787B300FB242399
:20194000F80796E30000051302C1208302812403024124830201290301C1298301812A03B1
:2019480001412A8301012B0300C12B8300812C0300412C83030101130000806700040593B6
:20195000000A0513A10FF0EFFA0502E300C417830407E79300F41623FFF00513FADFF06F93
:2019580000000513000080670044A9830004879300848493FE098AE30007AC03000986137B
:2019600000A00593000C05131B9030EF12050E630015051341850AB3EFDFF06F000C059338
:2019680000090613261030EF0004278300040593000A0513012787B300F42023998FF0EFDC
:20197000F20500E3F89FF06F0104268304F6E2630144260302C9EE6300098793013AF4635B
:20197800000A879302C7E6B30244270301C42583000B8613000A051340D786B3000700E7E8
:2019800000050913F4A054E3412989B3E35FF06F0007091300E9F46300098913000785136D
:2019880000090613000B85931DD030EF008427030004278341270733012787B300E4242363
:2019900000F42023FC0712E300040593000A0513904FF0EFEE051CE3412989B3DE5FF06F58
:2019980000098C1300098C93DADFF06F000B8613000C0593191030EF00842703000427835B
:2019A000000B891341770733017787B300E4242300F42023E4DFF06F000A05135E9040EF19
:2019A80000050C93D40518E301042583000A0513891FF0EF00C4178300C0071300EA2023EC
:2019B000F7F7F793E8DFF06F0019879300078A93DC9FF06F00C0071300C4178300EA2023E3
:2019B800E71FF06FFE010113012128230131262301412423015122230161202300112E2388
:2019C00000812C2300912A2300058B132E050A9300000A1300100993FFF00913004AA483A1
:2019C800008AA403FFF484930204C66300C45783FFF4849300F9FC6300E4178300040513FB
:2019D00001278663000B00E700AA6A3306840413FD249EE3000AAA83FC0A92E301C1208353
:2019D80001812403014124830101290300C1298300412A8300012B03000A051300812A03D5
:2019E0000201011300008067FD0101130321202301312E2301412C2301512A230161282310
:2019E8000171262302112623028124230291222300050A9300058B932E050B1300000A13F3
:2019F00000100993FFF00913004B2483008B2403FFF484930204C86300C45783FFF4849399
:2019F80000F9FE6300E4178300040593000A851301278663000B80E700AA6A33068404134E
:201A0000FD249CE3000B2B03FC0B10E302C1208302812403024124830201290301C129835C
:201A080001412A8301012B0300C12B83000A051301812A0303010113000080670045069382
:201A10000000071301A50513FFFF88370006D7830017F613000604630017671300277613F3
:201A18000017D793001717130107E5B300060663010597930107D79300F690230107171360
:201A20000026869301075713FCD512E3000080670185069300000713002505130006D78372
:201A280001079613410656130017979300065463001767130027761301079793001717138B
:201A30000107D793000604630017E79300F6902301071713FFE6869301075713FCD510E317
:201A380000008067FE01011300010E3700011D2300011E230185859301C107930081081335
:201A4000FFFE0E130005D703FFE78793FFE5859302070A6302A707330027D8830007D303D5
